{
  "contractName": "Migrations",
  "abi": [
    {
      "anonymous": false,
      "inputs": [
        {
          "indexed": false,
          "internalType": "address",
          "name": "from",
          "type": "address"
        },
        {
          "indexed": false,
          "internalType": "string",
          "name": "time",
          "type": "string"
        }
      ],
      "name": "Tweeted",
      "type": "event"
    },
    {
      "inputs": [],
      "name": "last_completed_migration",
      "outputs": [
        {
          "internalType": "uint256",
          "name": "",
          "type": "uint256"
        }
      ],
      "stateMutability": "view",
      "type": "function",
      "constant": true
    },
    {
      "inputs": [],
      "name": "owner",
      "outputs": [
        {
          "internalType": "address",
          "name": "",
          "type": "address"
        }
      ],
      "stateMutability": "view",
      "type": "function",
      "constant": true
    },
    {
      "inputs": [
        {
          "internalType": "uint256",
          "name": "completed",
          "type": "uint256"
        }
      ],
      "name": "setCompleted",
      "outputs": [],
      "stateMutability": "nonpayable",
      "type": "function"
    },
    {
      "inputs": [
        {
          "internalType": "string",
          "name": "tweetmsg",
          "type": "string"
        },
        {
          "internalType": "string",
          "name": "imageurl",
          "type": "string"
        }
      ],
      "name": "addTweet",
      "outputs": [],
      "stateMutability": "nonpayable",
      "type": "function"
    },
    {
      "inputs": [],
      "name": "Retweet",
      "outputs": [],
      "stateMutability": "nonpayable",
      "type": "function"
    },
    {
      "inputs": [
        {
          "internalType": "address",
          "name": "follower",
          "type": "address"
        }
      ],
      "name": "Follow",
      "outputs": [],
      "stateMutability": "nonpayable",
      "type": "function"
    },
    {
      "inputs": [],
      "name": "getAllTweets",
      "outputs": [
        {
          "components": [
            {
              "internalType": "uint256",
              "name": "id",
              "type": "uint256"
            },
            {
              "internalType": "string",
              "name": "tweet",
              "type": "string"
            },
            {
              "internalType": "address[]",
              "name": "reweet",
              "type": "address[]"
            },
            {
              "internalType": "string",
              "name": "image",
              "type": "string"
            },
            {
              "internalType": "uint256",
              "name": "time",
              "type": "uint256"
            },
            {
              "internalType": "address",
              "name": "user_id",
              "type": "address"
            }
          ],
          "internalType": "struct Migrations.Tweet[]",
          "name": "",
          "type": "tuple[]"
        }
      ],
      "stateMutability": "view",
      "type": "function",
      "constant": true
    },
    {
      "inputs": [],
      "name": "getAllUsers",
      "outputs": [
        {
          "components": [
            {
              "internalType": "address",
              "name": "id",
              "type": "address"
            },
            {
              "internalType": "string",
              "name": "name",
              "type": "string"
            },
            {
              "internalType": "address[]",
              "name": "follows",
              "type": "address[]"
            }
          ],
          "internalType": "struct Migrations.User[]",
          "name": "",
          "type": "tuple[]"
        }
      ],
      "stateMutability": "view",
      "type": "function",
      "constant": true
    },
    {
      "inputs": [],
      "name": "signupUser",
      "outputs": [],
      "stateMutability": "nonpayable",
      "type": "function"
    },
    {
      "inputs": [
        {
          "internalType": "string",
          "name": "name",
          "type": "string"
        }
      ],
      "name": "updateProfile",
      "outputs": [],
      "stateMutability": "nonpayable",
      "type": "function"
    },
    {
      "inputs": [],
      "name": "getMyProfile",
      "outputs": [
        {
          "components": [
            {
              "internalType": "address",
              "name": "id",
              "type": "address"
            },
            {
              "internalType": "string",
              "name": "name",
              "type": "string"
            },
            {
              "internalType": "address[]",
              "name": "follows",
              "type": "address[]"
            }
          ],
          "internalType": "struct Migrations.User",
          "name": "",
          "type": "tuple"
        }
      ],
      "stateMutability": "view",
      "type": "function",
      "constant": true
    }
  ],
  "bytecode": "0x6080604052336000806101000a81548173ffffffffffffffffffffffffffffffffffffffff021916908373ffffffffffffffffffffffffffffffffffffffff160217905550600060035534801561005557600080fd5b50611df0806100656000396000f3fe608060405234801561001057600080fd5b50600436106100a85760003560e01c80638da5cb5b116100715780638da5cb5b1461013f57806395a73f1d1461015d578063c23f9a6c14610167578063e06da1cb14610171578063e2842d791461018d578063fdacd576146101ab576100a8565b80629299e3146100ad57806321527e50146100c9578063445df0ac146100e757806353256135146101055780637e75b40814610123575b600080fd5b6100c760048036038101906100c29190611588565b6101c7565b005b6100d16102a2565b6040516100de91906117a0565b60405180910390f35b6100ef6104fc565b6040516100fc91906117db565b60405180910390f35b61010d610502565b60405161011a919061195e565b60405180910390f35b61013d60048036038101906101389190611980565b610877565b005b610147610a06565b6040516101549190611a07565b60405180910390f35b610165610a2a565b005b61016f610b53565b005b61018b60048036038101906101869190611a4e565b610ee4565b005b61019561100b565b6040516101a29190611b94565b60405180910390f35b6101c560048036038101906101c09190611be2565b6111e6565b005b60005b60058054905081101561029e573373ffffffffffffffffffffffffffffffffffffffff166005828154811061020257610201611c0f565b5b906000526020600020906003020160000160009054906101000a900473ffffffffffffffffffffffffffffffffffffffff1673ffffffffffffffffffffffffffffffffffffffff16141561028b57816005828154811061026557610264611c0f565b5b9060005260206000209060030201600101908051906020019061028992919061127e565b505b808061029690611c6d565b9150506101ca565b5050565b6102aa611304565b6102b2611304565b60005b6005805490508110156104f4573373ffffffffffffffffffffffffffffffffffffffff16600582815481106102ed576102ec611c0f565b5b906000526020600020906003020160000160009054906101000a900473ffffffffffffffffffffffffffffffffffffffff1673ffffffffffffffffffffffffffffffffffffffff1614156104e1576005818154811061034f5761034e611c0f565b5b90600052602060002090600302016040518060600160405290816000820160009054906101000a900473ffffffffffffffffffffffffffffffffffffffff1673ffffffffffffffffffffffffffffffffffffffff1673ffffffffffffffffffffffffffffffffffffffff1681526020016001820180546103ce90611ce5565b80601f01602080910402602001604051908101604052809291908181526020018280546103fa90611ce5565b80156104475780601f1061041c57610100808354040283529160200191610447565b820191906000526020600020905b81548152906001019060200180831161042a57829003601f168201915b50505050508152602001600282018054806020026020016040519081016040528092919081815260200182805480156104d557602002820191906000526020600020905b8160009054906101000a900473ffffffffffffffffffffffffffffffffffffffff1673ffffffffffffffffffffffffffffffffffffffff168152602001906001019080831161048b575b50505050508152505091505b80806104ec90611c6d565b9150506102b5565b508091505090565b60015481565b6060600060035467ffffffffffffffff8111156105225761052161145d565b5b60405190808252806020026020018201604052801561055b57816020015b61054861133b565b8152602001906001900390816105405790505b5090506000805b60035481101561086e573373ffffffffffffffffffffffffffffffffffffffff166004828154811061059757610596611c0f565b5b906000526020600020906006020160050160009054906101000a900473ffffffffffffffffffffffffffffffffffffffff1673ffffffffffffffffffffffffffffffffffffffff16141561085b57600481815481106105f9576105f8611c0f565b5b90600052602060002090600602016040518060c00160405290816000820154815260200160018201805461062c90611ce5565b80601f016020809104026020016040519081016040528092919081815260200182805461065890611ce5565b80156106a55780601f1061067a576101008083540402835291602001916106a5565b820191906000526020600020905b81548152906001019060200180831161068857829003601f168201915b505050505081526020016002820180548060200260200160405190810160405280929190818152602001828054801561073357602002820191906000526020600020905b8160009054906101000a900473ffffffffffffffffffffffffffffffffffffffff1673ffffffffffffffffffffffffffffffffffffffff16815260200190600101908083116106e9575b5050505050815260200160038201805461074c90611ce5565b80601f016020809104026020016040519081016040528092919081815260200182805461077890611ce5565b80156107c55780601f1061079a576101008083540402835291602001916107c5565b820191906000526020600020905b8154815290600101906020018083116107a857829003601f168201915b50505050508152602001600482015481526020016005820160009054906101000a900473ffffffffffffffffffffffffffffffffffffffff1673ffffffffffffffffffffffffffffffffffffffff1673ffffffffffffffffffffffffffffffffffffffff168152505083838151811061084157610840611c0f565b5b6020026020010181905250818061085790611c6d565b9250505b808061086690611c6d565b915050610562565b50819250505090565b60006040518060c001604052806003548152602001848152602001600067ffffffffffffffff8111156108ad576108ac61145d565b5b6040519080825280602002602001820160405280156108db5781602001602082028036833780820191505090505b5081526020018381526020014281526020013373ffffffffffffffffffffffffffffffffffffffff1681525090506003600081548092919061091c90611c6d565b9190505550600481908060018154018082558091505060019003906000526020600020906006020160009091909190915060008201518160000155602082015181600101908051906020019061097392919061127e565b506040820151816002019080519060200190610990929190611387565b5060608201518160030190805190602001906109ad92919061127e565b506080820151816004015560a08201518160050160006101000a81548173ffffffffffffffffffffffffffffffffffffffff021916908373ffffffffffffffffffffffffffffffffffffffff1602179055505050505050565b60008054906101000a900473ffffffffffffffffffffffffffffffffffffffff1681565b60005b600354811015610b4f573373ffffffffffffffffffffffffffffffffffffffff1660048281548110610a6257610a61611c0f565b5b906000526020600020906006020160050160009054906101000a900473ffffffffffffffffffffffffffffffffffffffff1673ffffffffffffffffffffffffffffffffffffffff161415610b3c5760048181548110610ac457610ac3611c0f565b5b9060005260206000209060060201600201339080600181540180825580915050600190039060005260206000200160009091909190916101000a81548173ffffffffffffffffffffffffffffffffffffffff021916908373ffffffffffffffffffffffffffffffffffffffff16021790555050610b51565b8080610b4790611c6d565b915050610a2d565b505b565b60006005805480602002602001604051908101604052809291908181526020016000905b82821015610d1f57838290600052602060002090600302016040518060600160405290816000820160009054906101000a900473ffffffffffffffffffffffffffffffffffffffff1673ffffffffffffffffffffffffffffffffffffffff1673ffffffffffffffffffffffffffffffffffffffff168152602001600182018054610c0090611ce5565b80601f0160208091040260200160405190810160405280929190818152602001828054610c2c90611ce5565b8015610c795780601f10610c4e57610100808354040283529160200191610c79565b820191906000526020600020905b815481529060010190602001808311610c5c57829003601f168201915b5050505050815260200160028201805480602002602001604051908101604052809291908181526020018280548015610d0757602002820191906000526020600020905b8160009054906101000a900473ffffffffffffffffffffffffffffffffffffffff1673ffffffffffffffffffffffffffffffffffffffff1681526020019060010190808311610cbd575b50505050508152505081526020019060010190610b77565b5050505090506000805b8251811015610d9c573373ffffffffffffffffffffffffffffffffffffffff16838281518110610d5c57610d5b611c0f565b5b60200260200101516000015173ffffffffffffffffffffffffffffffffffffffff161415610d8957600191505b8080610d9490611c6d565b915050610d29565b5080610ee057600060405180606001604052803373ffffffffffffffffffffffffffffffffffffffff168152602001604051806020016040528060008152508152602001600067ffffffffffffffff811115610dfb57610dfa61145d565b5b604051908082528060200260200182016040528015610e295781602001602082028036833780820191505090505b508152509050600581908060018154018082558091505060019003906000526020600020906003020160009091909190915060008201518160000160006101000a81548173ffffffffffffffffffffffffffffffffffffffff021916908373ffffffffffffffffffffffffffffffffffffffff1602179055506020820151816001019080519060200190610ebe92919061127e565b506040820151816002019080519060200190610edb929190611387565b505050505b5050565b60005b600580549050811015611007573373ffffffffffffffffffffffffffffffffffffffff1660058281548110610f1f57610f1e611c0f565b5b906000526020600020906003020160000160009054906101000a900473ffffffffffffffffffffffffffffffffffffffff1673ffffffffffffffffffffffffffffffffffffffff161415610ff45760058181548110610f8157610f80611c0f565b5b9060005260206000209060030201600201829080600181540180825580915050600190039060005260206000200160009091909190916101000a81548173ffffffffffffffffffffffffffffffffffffffff021916908373ffffffffffffffffffffffffffffffffffffffff1602179055505b8080610fff90611c6d565b915050610ee7565b5050565b606060006005805480602002602001604051908101604052809291908181526020016000905b828210156111d957838290600052602060002090600302016040518060600160405290816000820160009054906101000a900473ffffffffffffffffffffffffffffffffffffffff1673ffffffffffffffffffffffffffffffffffffffff1673ffffffffffffffffffffffffffffffffffffffff1681526020016001820180546110ba90611ce5565b80601f01602080910402602001604051908101604052809291908181526020018280546110e690611ce5565b80156111335780601f1061110857610100808354040283529160200191611133565b820191906000526020600020905b81548152906001019060200180831161111657829003601f168201915b50505050508152602001600282018054806020026020016040519081016040528092919081815260200182805480156111c157602002820191906000526020600020905b8160009054906101000a900473ffffffffffffffffffffffffffffffffffffffff1673ffffffffffffffffffffffffffffffffffffffff1681526020019060010190808311611177575b50505050508152505081526020019060010190611031565b5050505090508091505090565b60008054906101000a900473ffffffffffffffffffffffffffffffffffffffff1673ffffffffffffffffffffffffffffffffffffffff163373ffffffffffffffffffffffffffffffffffffffff1614611274576040517f08c379a000000000000000000000000000000000000000000000000000000000815260040161126b90611d9a565b60405180910390fd5b8060018190555050565b82805461128a90611ce5565b90600052602060002090601f0160209004810192826112ac57600085556112f3565b82601f106112c557805160ff19168380011785556112f3565b828001600101855582156112f3579182015b828111156112f25782518255916020019190600101906112d7565b5b5090506113009190611411565b5090565b6040518060600160405280600073ffffffffffffffffffffffffffffffffffffffff16815260200160608152602001606081525090565b6040518060c001604052806000815260200160608152602001606081526020016060815260200160008152602001600073ffffffffffffffffffffffffffffffffffffffff1681525090565b828054828255906000526020600020908101928215611400579160200282015b828111156113ff5782518260006101000a81548173ffffffffffffffffffffffffffffffffffffffff021916908373ffffffffffffffffffffffffffffffffffffffff160217905550916020019190600101906113a7565b5b50905061140d9190611411565b5090565b5b8082111561142a576000816000905550600101611412565b5090565b6000604051905090565b600080fd5b600080fd5b600080fd5b600080fd5b6000601f19601f8301169050919050565b7f4e487b7100000000000000000000000000000000000000000000000000000000600052604160045260246000fd5b6114958261144c565b810181811067ffffffffffffffff821117156114b4576114b361145d565b5b80604052505050565b60006114c761142e565b90506114d3828261148c565b919050565b600067ffffffffffffffff8211156114f3576114f261145d565b5b6114fc8261144c565b9050602081019050919050565b82818337600083830152505050565b600061152b611526846114d8565b6114bd565b90508281526020810184848401111561154757611546611447565b5b611552848285611509565b509392505050565b600082601f83011261156f5761156e611442565b5b813561157f848260208601611518565b91505092915050565b60006020828403121561159e5761159d611438565b5b600082013567ffffffffffffffff8111156115bc576115bb61143d565b5b6115c88482850161155a565b91505092915050565b600073ffffffffffffffffffffffffffffffffffffffff82169050919050565b60006115fc826115d1565b9050919050565b61160c816115f1565b82525050565b600081519050919050565b600082825260208201905092915050565b60005b8381101561164c578082015181840152602081019050611631565b8381111561165b576000848401525b50505050565b600061166c82611612565b611676818561161d565b935061168681856020860161162e565b61168f8161144c565b840191505092915050565b600081519050919050565b600082825260208201905092915050565b6000819050602082019050919050565b60006116d28383611603565b60208301905092915050565b6000602082019050919050565b60006116f68261169a565b61170081856116a5565b935061170b836116b6565b8060005b8381101561173c57815161172388826116c6565b975061172e836116de565b92505060018101905061170f565b5085935050505092915050565b60006060830160008301516117616000860182611603565b50602083015184820360208601526117798282611661565b9150506040830151848203604086015261179382826116eb565b9150508091505092915050565b600060208201905081810360008301526117ba8184611749565b905092915050565b6000819050919050565b6117d5816117c2565b82525050565b60006020820190506117f060008301846117cc565b92915050565b600081519050919050565b600082825260208201905092915050565b6000819050602082019050919050565b61182b816117c2565b82525050565b600060c0830160008301516118496000860182611822565b50602083015184820360208601526118618282611661565b9150506040830151848203604086015261187b82826116eb565b915050606083015184820360608601526118958282611661565b91505060808301516118aa6080860182611822565b5060a08301516118bd60a0860182611603565b508091505092915050565b60006118d48383611831565b905092915050565b6000602082019050919050565b60006118f4826117f6565b6118fe8185611801565b93508360208202850161191085611812565b8060005b8581101561194c578484038952815161192d85826118c8565b9450611938836118dc565b925060208a01995050600181019050611914565b50829750879550505050505092915050565b6000602082019050818103600083015261197881846118e9565b905092915050565b6000806040838503121561199757611996611438565b5b600083013567ffffffffffffffff8111156119b5576119b461143d565b5b6119c18582860161155a565b925050602083013567ffffffffffffffff8111156119e2576119e161143d565b5b6119ee8582860161155a565b9150509250929050565b611a01816115f1565b82525050565b6000602082019050611a1c60008301846119f8565b92915050565b611a2b816115f1565b8114611a3657600080fd5b50565b600081359050611a4881611a22565b92915050565b600060208284031215611a6457611a63611438565b5b6000611a7284828501611a39565b91505092915050565b600081519050919050565b600082825260208201905092915050565b6000819050602082019050919050565b6000606083016000830151611abf6000860182611603565b5060208301518482036020860152611ad78282611661565b91505060408301518482036040860152611af182826116eb565b9150508091505092915050565b6000611b0a8383611aa7565b905092915050565b6000602082019050919050565b6000611b2a82611a7b565b611b348185611a86565b935083602082028501611b4685611a97565b8060005b85811015611b825784840389528151611b638582611afe565b9450611b6e83611b12565b925060208a01995050600181019050611b4a565b50829750879550505050505092915050565b60006020820190508181036000830152611bae8184611b1f565b905092915050565b611bbf816117c2565b8114611bca57600080fd5b50565b600081359050611bdc81611bb6565b92915050565b600060208284031215611bf857611bf7611438565b5b6000611c0684828501611bcd565b91505092915050565b7f4e487b7100000000000000000000000000000000000000000000000000000000600052603260045260246000fd5b7f4e487b7100000000000000000000000000000000000000000000000000000000600052601160045260246000fd5b6000611c78826117c2565b91507fffffffffffffffffffffffffffffffffffffffffffffffffffffffffffffffff821415611cab57611caa611c3e565b5b600182019050919050565b7f4e487b7100000000000000000000000000000000000000000000000000000000600052602260045260246000fd5b60006002820490506001821680611cfd57607f821691505b60208210811415611d1157611d10611cb6565b5b50919050565b600082825260208201905092915050565b7f546869732066756e6374696f6e206973207265737472696374656420746f207460008201527f686520636f6e74726163742773206f776e657200000000000000000000000000602082015250565b6000611d84603383611d17565b9150611d8f82611d28565b604082019050919050565b60006020820190508181036000830152611db381611d77565b905091905056fea26469706673582212204eecfebb2f5cd21a90eaa24ff538751e2e4479d64dd4b22aa0c2e4b4772d5ee964736f6c634300080b0033",
  "immutableReferences": {},
  "source": "// SPDX-License-Identifier: MIT\npragma solidity >=0.4.22 <0.9.0;\n\ncontract Migrations {\n    address public owner = msg.sender;\n    uint256 public last_completed_migration;\n    event Tweeted(address from, string time);\n    mapping(uint256 => address) users;\n    uint256 counter = 0;\n    struct Tweet {\n        uint256 id;\n        string tweet;\n        address[] reweet;\n        string image;\n        uint256 time;\n        address user_id;\n    }\n\n    struct User {\n        address id;\n        string name;\n        address[] follows;\n    }\n    Tweet[] tweets;\n    User[] usersArray;\n\n    modifier restricted() {\n        require(\n            msg.sender == owner,\n            \"This function is restricted to the contract's owner\"\n        );\n        _;\n    }\n\n    function setCompleted(uint256 completed) public restricted {\n        last_completed_migration = completed;\n    }\n\n    function addTweet(string memory tweetmsg, string memory imageurl) external {\n        Tweet memory newtweek = Tweet({\n            id: counter,\n            tweet: tweetmsg,\n            user_id: msg.sender,\n            image: imageurl,\n            reweet: new address[](0),\n            time: block.timestamp\n        });\n        counter++;\n        tweets.push(newtweek);\n    }\n\n    function Retweet() external {\n        for (uint256 index = 0; index < counter; index++) {\n            if (tweets[index].user_id == msg.sender) {\n                tweets[index].reweet.push(msg.sender);\n                return;\n            }\n        }\n    }\n\n    function Follow(address follower) external {\n        for (uint256 index = 0; index < usersArray.length; index++) {\n            if (usersArray[index].id == msg.sender) {\n                usersArray[index].follows.push(follower);\n            }\n        }\n    }\n\n    //  function GetRetweet() external view returns(address[] memory) {\n    //     address[] memory user=[];\n    //     for (uint256 index = 0; index < counter; index++) {\n    //         if (tweets[index].reweet != msg.sender) {\n    //             for (uint256 index = 0; index < counter; index++) {\n    //         }\n    //     }\n    // }\n\n    function getAllTweets() external view returns(Tweet[] memory){\n        Tweet[] memory tweetsThatAreNotMine=new Tweet[](counter);\n        uint tweetCounter=0;\n   for (uint256 index = 0; index < counter; index++) {\n    if(tweets[index].user_id==msg.sender){\n        tweetsThatAreNotMine[tweetCounter]=tweets[index];\n        tweetCounter++;\n    }\n    \n   }\n   return tweetsThatAreNotMine;\n    }\n\n    function getAllUsers() external view returns (User[] memory) {\n \n        User[] memory allusers=usersArray;\n      \n        return allusers;\n    }\n\n    function signupUser() external {\n        User[] memory allusers = usersArray;\n        bool found = false;\n        for (uint256 index = 0; index < allusers.length; index++) {\n            if (allusers[index].id == msg.sender) {\n                found = true;\n            }\n        }\n        // const ins=await Migrations.deployed()\n        if (!found) {\n                User memory newuser = User({\n                    id: msg.sender,\n                    name: \"\",\n                    follows: new address[](0)\n                });\n                usersArray.push(newuser);\n            }\n    }\n    function updateProfile(string memory name) external {\n      \n        for (uint256 index = 0; index < usersArray.length; index++) {\n            if(usersArray[index].id==msg.sender){\n                usersArray[index].name=name;\n            }\n        }\n    }\n\n    function getMyProfile() external view returns(User memory) {\n      User memory myid;\n        for (uint256 index = 0; index < usersArray.length; index++) {\n            if(usersArray[index].id==msg.sender){\n                myid=usersArray[index];\n            }\n        }\n        return myid;\n    }\n}\n",
  "sourcePath": "D:\\twitter-blockchain-youtube\\contracts\\Migrations.sol",
  "compiler": {
    "name": "solc",
    "version": "0.8.11+commit.d7f03943.Emscripten.clang"
  },
  "schemaVersion": "3.4.4",
  "updatedAt": "2023-01-06T19:12:24.990Z",
  "networkType": "ethereum",
  "devdoc": {
    "kind": "dev",
    "methods": {},
    "version": 1
  },
  "userdoc": {
    "kind": "user",
    "methods": {},
    "version": 1
  }
}