{
  "_format": "hh-sol-artifact-1",
  "contractName": "Twitter",
  "sourceName": "contracts/Twitter.sol",
  "abi": [
    {
      "inputs": [
        {
          "internalType": "uint256",
          "name": "timestamps",
          "type": "uint256"
        },
        {
          "internalType": "string",
          "name": "message",
          "type": "string"
        }
      ],
      "name": "createPost",
      "outputs": [],
      "stateMutability": "nonpayable",
      "type": "function"
    },
    {
      "inputs": [],
      "name": "getAllPosts",
      "outputs": [
        {
          "components": [
            {
              "internalType": "address",
              "name": "owner",
              "type": "address"
            },
            {
              "internalType": "uint256",
              "name": "id",
              "type": "uint256"
            },
            {
              "internalType": "string",
              "name": "msg",
              "type": "string"
            },
            {
              "internalType": "uint256",
              "name": "timestamps",
              "type": "uint256"
            },
            {
              "internalType": "address[]",
              "name": "likes",
              "type": "address[]"
            }
          ],
          "internalType": "struct Twitter.Post[]",
          "name": "",
          "type": "tuple[]"
        }
      ],
      "stateMutability": "view",
      "type": "function"
    },
    {
      "inputs": [],
      "name": "getMyPosts",
      "outputs": [
        {
          "components": [
            {
              "internalType": "address",
              "name": "owner",
              "type": "address"
            },
            {
              "internalType": "uint256",
              "name": "id",
              "type": "uint256"
            },
            {
              "internalType": "string",
              "name": "msg",
              "type": "string"
            },
            {
              "internalType": "uint256",
              "name": "timestamps",
              "type": "uint256"
            },
            {
              "internalType": "address[]",
              "name": "likes",
              "type": "address[]"
            }
          ],
          "internalType": "struct Twitter.Post[]",
          "name": "",
          "type": "tuple[]"
        }
      ],
      "stateMutability": "view",
      "type": "function"
    },
    {
      "inputs": [
        {
          "internalType": "uint256",
          "name": "",
          "type": "uint256"
        }
      ],
      "name": "post",
      "outputs": [
        {
          "internalType": "address",
          "name": "owner",
          "type": "address"
        },
        {
          "internalType": "uint256",
          "name": "id",
          "type": "uint256"
        },
        {
          "internalType": "string",
          "name": "msg",
          "type": "string"
        },
        {
          "internalType": "uint256",
          "name": "timestamps",
          "type": "uint256"
        }
      ],
      "stateMutability": "view",
      "type": "function"
    },
    {
      "inputs": [
        {
          "internalType": "uint256",
          "name": "",
          "type": "uint256"
        }
      ],
      "name": "posts",
      "outputs": [
        {
          "internalType": "address",
          "name": "owner",
          "type": "address"
        },
        {
          "internalType": "uint256",
          "name": "id",
          "type": "uint256"
        },
        {
          "internalType": "string",
          "name": "msg",
          "type": "string"
        },
        {
          "internalType": "uint256",
          "name": "timestamps",
          "type": "uint256"
        }
      ],
      "stateMutability": "view",
      "type": "function"
    },
    {
      "inputs": [
        {
          "internalType": "uint256",
          "name": "id",
          "type": "uint256"
        },
        {
          "components": [
            {
              "internalType": "address",
              "name": "owner",
              "type": "address"
            },
            {
              "internalType": "uint256",
              "name": "id",
              "type": "uint256"
            },
            {
              "internalType": "string",
              "name": "msg",
              "type": "string"
            },
            {
              "internalType": "uint256",
              "name": "timestamps",
              "type": "uint256"
            },
            {
              "internalType": "address[]",
              "name": "likes",
              "type": "address[]"
            }
          ],
          "internalType": "struct Twitter.Post",
          "name": "object",
          "type": "tuple"
        }
      ],
      "name": "updatePost",
      "outputs": [],
      "stateMutability": "nonpayable",
      "type": "function"
    }
  ],
  "bytecode": "0x608060405234801561001057600080fd5b50611a7b806100206000396000f3fe608060405234801561001057600080fd5b50600436106100625760003560e01c80630b1e7f8314610067578063305611001461009a5780635950eb5b146100b8578063a9ca3a4c146100d6578063caa5863c146100f2578063d4ae3a2914610125575b600080fd5b610081600480360381019061007c9190610f1f565b610141565b604051610091949392919061102c565b60405180910390f35b6100a2610229565b6040516100af91906112ce565b60405180910390f35b6100c0610418565b6040516100cd91906112ce565b60405180910390f35b6100f060048036038101906100eb9190611425565b6106f2565b005b61010c60048036038101906101079190610f1f565b61084e565b60405161011c949392919061102c565b60405180910390f35b61013f600480360381019061013a9190611643565b610926565b005b6002818154811061015157600080fd5b90600052602060002090600502016000915090508060000160009054906101000a900473ffffffffffffffffffffffffffffffffffffffff16908060010154908060020180546101a0906116ce565b80601f01602080910402602001604051908101604052809291908181526020018280546101cc906116ce565b80156102195780601f106101ee57610100808354040283529160200191610219565b820191906000526020600020905b8154815290600101906020018083116101fc57829003601f168201915b5050505050908060030154905084565b606060006002805480602002602001604051908101604052809291908181526020016000905b8282101561040b57838290600052602060002090600502016040518060a00160405290816000820160009054906101000a900473ffffffffffffffffffffffffffffffffffffffff1673ffffffffffffffffffffffffffffffffffffffff1673ffffffffffffffffffffffffffffffffffffffff168152602001600182015481526020016002820180546102e2906116ce565b80601f016020809104026020016040519081016040528092919081815260200182805461030e906116ce565b801561035b5780601f106103305761010080835404028352916020019161035b565b820191906000526020600020905b81548152906001019060200180831161033e57829003601f168201915b5050505050815260200160038201548152602001600482018054806020026020016040519081016040528092919081815260200182805480156103f357602002820191906000526020600020905b8160009054906101000a900473ffffffffffffffffffffffffffffffffffffffff1673ffffffffffffffffffffffffffffffffffffffff16815260200190600101908083116103a9575b5050505050815250508152602001906001019061024f565b5050505090508091505090565b6060600060028054905067ffffffffffffffff81111561043b5761043a6112fa565b5b60405190808252806020026020018201604052801561047457816020015b610461610de9565b8152602001906001900390816104595790505b5090506000805b6002805490508110156106e9573373ffffffffffffffffffffffffffffffffffffffff16600282815481106104b3576104b26116ff565b5b906000526020600020906005020160000160009054906101000a900473ffffffffffffffffffffffffffffffffffffffff1673ffffffffffffffffffffffffffffffffffffffff16036106d65760028181548110610514576105136116ff565b5b90600052602060002090600502016040518060a00160405290816000820160009054906101000a900473ffffffffffffffffffffffffffffffffffffffff1673ffffffffffffffffffffffffffffffffffffffff1673ffffffffffffffffffffffffffffffffffffffff1681526020016001820154815260200160028201805461059d906116ce565b80601f01602080910402602001604051908101604052809291908181526020018280546105c9906116ce565b80156106165780601f106105eb57610100808354040283529160200191610616565b820191906000526020600020905b8154815290600101906020018083116105f957829003601f168201915b5050505050815260200160038201548152602001600482018054806020026020016040519081016040528092919081815260200182805480156106ae57602002820191906000526020600020905b8160009054906101000a900473ffffffffffffffffffffffffffffffffffffffff1673ffffffffffffffffffffffffffffffffffffffff1681526020019060010190808311610664575b5050505050815250508383815181106106ca576106c96116ff565b5b60200260200101819052505b80806106e19061175d565b91505061047b565b50819250505090565b60006106fe6000610d03565b905061070a6000610d11565b606060006040518060a001604052803373ffffffffffffffffffffffffffffffffffffffff168152602001848152602001858152602001868152602001838152509050600281908060018154018082558091505060019003906000526020600020906005020160009091909190915060008201518160000160006101000a81548173ffffffffffffffffffffffffffffffffffffffff021916908373ffffffffffffffffffffffffffffffffffffffff1602179055506020820151816001015560408201518160020190816107df9190611951565b50606082015181600301556080820151816004019080519060200190610806929190610e2e565b5050506108476040518060400160405280600781526020017f6372656174656400000000000000000000000000000000000000000000000000815250610d27565b5050505050565b60016020528060005260406000206000915090508060000160009054906101000a900473ffffffffffffffffffffffffffffffffffffffff169080600101549080600201805461089d906116ce565b80601f01602080910402602001604051908101604052809291908181526020018280546108c9906116ce565b80156109165780601f106108eb57610100808354040283529160200191610916565b820191906000526020600020905b8154815290600101906020018083116108f957829003601f168201915b5050505050908060030154905084565b61092e610de9565b60005b600280549050811015610cfd578360028281548110610953576109526116ff565b5b90600052602060002090600502016001015403610cea576002818154811061097e5761097d6116ff565b5b90600052602060002090600502016040518060a00160405290816000820160009054906101000a900473ffffffffffffffffffffffffffffffffffffffff1673ffffffffffffffffffffffffffffffffffffffff1673ffffffffffffffffffffffffffffffffffffffff16815260200160018201548152602001600282018054610a07906116ce565b80601f0160208091040260200160405190810160405280929190818152602001828054610a33906116ce565b8015610a805780601f10610a5557610100808354040283529160200191610a80565b820191906000526020600020905b815481529060010190602001808311610a6357829003601f168201915b505050505081526020016003820154815260200160048201805480602002602001604051908101604052809291908181526020018280548015610b1857602002820191906000526020600020905b8160009054906101000a900473ffffffffffffffffffffffffffffffffffffffff1673ffffffffffffffffffffffffffffffffffffffff1681526020019060010190808311610ace575b50505050508152505091506040518060a001604052803373ffffffffffffffffffffffffffffffffffffffff16815260200160028381548110610b5e57610b5d6116ff565b5b9060005260206000209060050201600101548152602001846040015181526020018460600151815260200160028381548110610b9d57610b9c6116ff565b5b9060005260206000209060050201600401805480602002602001604051908101604052809291908181526020018280548015610c2e57602002820191906000526020600020905b8160009054906101000a900473ffffffffffffffffffffffffffffffffffffffff1673ffffffffffffffffffffffffffffffffffffffff1681526020019060010190808311610be4575b505050505081525060028281548110610c4a57610c496116ff565b5b906000526020600020906005020160008201518160000160006101000a81548173ffffffffffffffffffffffffffffffffffffffff021916908373ffffffffffffffffffffffffffffffffffffffff160217905550602082015181600101556040820151816002019081610cbe9190611951565b50606082015181600301556080820151816004019080519060200190610ce5929190610e2e565b509050505b8080610cf59061175d565b915050610931565b50505050565b600081600001549050919050565b6001816000016000828254019250508190555050565b610dbd81604051602401610d3b9190611a23565b6040516020818303038152906040527f41304fac000000000000000000000000000000000000000000000000000000007bffffffffffffffffffffffffffffffffffffffffffffffffffffffff19166020820180517bffffffffffffffffffffffffffffffffffffffffffffffffffffffff8381831617835250505050610dc0565b50565b60008151905060006a636f6e736f6c652e6c6f679050602083016000808483855afa5050505050565b6040518060a00160405280600073ffffffffffffffffffffffffffffffffffffffff168152602001600081526020016060815260200160008152602001606081525090565b828054828255906000526020600020908101928215610ea7579160200282015b82811115610ea65782518260006101000a81548173ffffffffffffffffffffffffffffffffffffffff021916908373ffffffffffffffffffffffffffffffffffffffff16021790555091602001919060010190610e4e565b5b509050610eb49190610eb8565b5090565b5b80821115610ed1576000816000905550600101610eb9565b5090565b6000604051905090565b600080fd5b600080fd5b6000819050919050565b610efc81610ee9565b8114610f0757600080fd5b50565b600081359050610f1981610ef3565b92915050565b600060208284031215610f3557610f34610edf565b5b6000610f4384828501610f0a565b91505092915050565b600073ffffffffffffffffffffffffffffffffffffffff82169050919050565b6000610f7782610f4c565b9050919050565b610f8781610f6c565b82525050565b610f9681610ee9565b82525050565b600081519050919050565b600082825260208201905092915050565b60005b83811015610fd6578082015181840152602081019050610fbb565b60008484015250505050565b6000601f19601f8301169050919050565b6000610ffe82610f9c565b6110088185610fa7565b9350611018818560208601610fb8565b61102181610fe2565b840191505092915050565b60006080820190506110416000830187610f7e565b61104e6020830186610f8d565b81810360408301526110608185610ff3565b905061106f6060830184610f8d565b95945050505050565b600081519050919050565b600082825260208201905092915050565b6000819050602082019050919050565b6110ad81610f6c565b82525050565b6110bc81610ee9565b82525050565b600082825260208201905092915050565b60006110de82610f9c565b6110e881856110c2565b93506110f8818560208601610fb8565b61110181610fe2565b840191505092915050565b600081519050919050565b600082825260208201905092915050565b6000819050602082019050919050565b600061114483836110a4565b60208301905092915050565b6000602082019050919050565b60006111688261110c565b6111728185611117565b935061117d83611128565b8060005b838110156111ae5781516111958882611138565b97506111a083611150565b925050600181019050611181565b5085935050505092915050565b600060a0830160008301516111d360008601826110a4565b5060208301516111e660208601826110b3565b50604083015184820360408601526111fe82826110d3565b915050606083015161121360608601826110b3565b506080830151848203608086015261122b828261115d565b9150508091505092915050565b600061124483836111bb565b905092915050565b6000602082019050919050565b600061126482611078565b61126e8185611083565b93508360208202850161128085611094565b8060005b858110156112bc578484038952815161129d8582611238565b94506112a88361124c565b925060208a01995050600181019050611284565b50829750879550505050505092915050565b600060208201905081810360008301526112e88184611259565b905092915050565b600080fd5b600080fd5b7f4e487b7100000000000000000000000000000000000000000000000000000000600052604160045260246000fd5b61133282610fe2565b810181811067ffffffffffffffff82111715611351576113506112fa565b5b80604052505050565b6000611364610ed5565b90506113708282611329565b919050565b600067ffffffffffffffff8211156113905761138f6112fa565b5b61139982610fe2565b9050602081019050919050565b82818337600083830152505050565b60006113c86113c384611375565b61135a565b9050828152602081018484840111156113e4576113e36112f5565b5b6113ef8482856113a6565b509392505050565b600082601f83011261140c5761140b6112f0565b5b813561141c8482602086016113b5565b91505092915050565b6000806040838503121561143c5761143b610edf565b5b600061144a85828601610f0a565b925050602083013567ffffffffffffffff81111561146b5761146a610ee4565b5b611477858286016113f7565b9150509250929050565b600080fd5b600080fd5b61149481610f6c565b811461149f57600080fd5b50565b6000813590506114b18161148b565b92915050565b600067ffffffffffffffff8211156114d2576114d16112fa565b5b602082029050602081019050919050565b600080fd5b60006114fb6114f6846114b7565b61135a565b9050808382526020820190506020840283018581111561151e5761151d6114e3565b5b835b81811015611547578061153388826114a2565b845260208401935050602081019050611520565b5050509392505050565b600082601f830112611566576115656112f0565b5b81356115768482602086016114e8565b91505092915050565b600060a0828403121561159557611594611481565b5b61159f60a061135a565b905060006115af848285016114a2565b60008301525060206115c384828501610f0a565b602083015250604082013567ffffffffffffffff8111156115e7576115e6611486565b5b6115f3848285016113f7565b604083015250606061160784828501610f0a565b606083015250608082013567ffffffffffffffff81111561162b5761162a611486565b5b61163784828501611551565b60808301525092915050565b6000806040838503121561165a57611659610edf565b5b600061166885828601610f0a565b925050602083013567ffffffffffffffff81111561168957611688610ee4565b5b6116958582860161157f565b9150509250929050565b7f4e487b7100000000000000000000000000000000000000000000000000000000600052602260045260246000fd5b600060028204905060018216806116e657607f821691505b6020821081036116f9576116f861169f565b5b50919050565b7f4e487b7100000000000000000000000000000000000000000000000000000000600052603260045260246000fd5b7f4e487b7100000000000000000000000000000000000000000000000000000000600052601160045260246000fd5b600061176882610ee9565b91507fffffffffffffffffffffffffffffffffffffffffffffffffffffffffffffffff820361179a5761179961172e565b5b600182019050919050565b60008190508160005260206000209050919050565b60006020601f8301049050919050565b600082821b905092915050565b6000600883026118077fffffffffffffffffffffffffffffffffffffffffffffffffffffffffffffffff826117ca565b61181186836117ca565b95508019841693508086168417925050509392505050565b6000819050919050565b600061184e61184961184484610ee9565b611829565b610ee9565b9050919050565b6000819050919050565b61186883611833565b61187c61187482611855565b8484546117d7565b825550505050565b600090565b611891611884565b61189c81848461185f565b505050565b5b818110156118c0576118b5600082611889565b6001810190506118a2565b5050565b601f821115611905576118d6816117a5565b6118df846117ba565b810160208510156118ee578190505b6119026118fa856117ba565b8301826118a1565b50505b505050565b600082821c905092915050565b60006119286000198460080261190a565b1980831691505092915050565b60006119418383611917565b9150826002028217905092915050565b61195a82610f9c565b67ffffffffffffffff811115611973576119726112fa565b5b61197d82546116ce565b6119888282856118c4565b600060209050601f8311600181146119bb57600084156119a9578287015190505b6119b38582611935565b865550611a1b565b601f1984166119c9866117a5565b60005b828110156119f1578489015182556001820191506020850194506020810190506119cc565b86831015611a0e5784890151611a0a601f891682611917565b8355505b6001600288020188555050505b505050505050565b60006020820190508181036000830152611a3d8184610ff3565b90509291505056fea264697066735822122078e78603cae80d2ec3937a91a04e4b27e5d37a3d8dae69974376865dead67ea364736f6c63430008120033",
  "linkReferences": {},
  "deployedLinkReferences": {}
}