{
  "_format": "hh-sol-artifact-1",
  "contractName": "User",
  "sourceName": "contracts/User.sol",
  "abi": [
    {
      "anonymous": false,
      "inputs": [
        {
          "indexed": false,
          "internalType": "address",
          "name": "from",
          "type": "address"
        },
        {
          "indexed": false,
          "internalType": "string",
          "name": "name",
          "type": "string"
        }
      ],
      "name": "UserSignup",
      "type": "event"
    },
    {
      "inputs": [],
      "name": "delete_user",
      "outputs": [],
      "stateMutability": "nonpayable",
      "type": "function"
    },
    {
      "inputs": [
        {
          "internalType": "address",
          "name": "a",
          "type": "address"
        }
      ],
      "name": "getProfileDetails",
      "outputs": [
        {
          "components": [
            {
              "internalType": "address",
              "name": "wallet",
              "type": "address"
            },
            {
              "internalType": "uint256",
              "name": "id",
              "type": "uint256"
            },
            {
              "internalType": "string",
              "name": "user_name",
              "type": "string"
            },
            {
              "internalType": "string",
              "name": "email",
              "type": "string"
            },
            {
              "internalType": "string",
              "name": "image_url",
              "type": "string"
            },
            {
              "internalType": "bool",
              "name": "isDeleted",
              "type": "bool"
            }
          ],
          "internalType": "struct User.UserModal",
          "name": "",
          "type": "tuple"
        }
      ],
      "stateMutability": "view",
      "type": "function"
    },
    {
      "inputs": [],
      "name": "get_all_users",
      "outputs": [
        {
          "components": [
            {
              "internalType": "address",
              "name": "wallet",
              "type": "address"
            },
            {
              "internalType": "uint256",
              "name": "id",
              "type": "uint256"
            },
            {
              "internalType": "string",
              "name": "user_name",
              "type": "string"
            },
            {
              "internalType": "string",
              "name": "email",
              "type": "string"
            },
            {
              "internalType": "string",
              "name": "image_url",
              "type": "string"
            },
            {
              "internalType": "bool",
              "name": "isDeleted",
              "type": "bool"
            }
          ],
          "internalType": "struct User.UserModal[]",
          "name": "",
          "type": "tuple[]"
        }
      ],
      "stateMutability": "view",
      "type": "function"
    },
    {
      "inputs": [
        {
          "internalType": "string",
          "name": "email",
          "type": "string"
        }
      ],
      "name": "signin",
      "outputs": [
        {
          "components": [
            {
              "internalType": "address",
              "name": "wallet",
              "type": "address"
            },
            {
              "internalType": "uint256",
              "name": "id",
              "type": "uint256"
            },
            {
              "internalType": "string",
              "name": "user_name",
              "type": "string"
            },
            {
              "internalType": "string",
              "name": "email",
              "type": "string"
            },
            {
              "internalType": "string",
              "name": "image_url",
              "type": "string"
            },
            {
              "internalType": "bool",
              "name": "isDeleted",
              "type": "bool"
            }
          ],
          "internalType": "struct User.UserModal",
          "name": "b",
          "type": "tuple"
        }
      ],
      "stateMutability": "view",
      "type": "function"
    },
    {
      "inputs": [
        {
          "components": [
            {
              "internalType": "string",
              "name": "user_name",
              "type": "string"
            },
            {
              "internalType": "string",
              "name": "email",
              "type": "string"
            },
            {
              "internalType": "string",
              "name": "image_url",
              "type": "string"
            }
          ],
          "internalType": "struct User.UserDTO",
          "name": "object",
          "type": "tuple"
        }
      ],
      "name": "signup",
      "outputs": [],
      "stateMutability": "nonpayable",
      "type": "function"
    },
    {
      "inputs": [
        {
          "components": [
            {
              "internalType": "string",
              "name": "user_name",
              "type": "string"
            },
            {
              "internalType": "string",
              "name": "email",
              "type": "string"
            },
            {
              "internalType": "string",
              "name": "image_url",
              "type": "string"
            }
          ],
          "internalType": "struct User.UserDTO",
          "name": "object",
          "type": "tuple"
        }
      ],
      "name": "update_profile",
      "outputs": [
        {
          "internalType": "string",
          "name": "",
          "type": "string"
        }
      ],
      "stateMutability": "nonpayable",
      "type": "function"
    },
    {
      "inputs": [
        {
          "internalType": "address",
          "name": "",
          "type": "address"
        }
      ],
      "name": "users",
      "outputs": [
        {
          "internalType": "uint256",
          "name": "",
          "type": "uint256"
        }
      ],
      "stateMutability": "view",
      "type": "function"
    }
  ],
  "bytecode": "0x6080604052600060015534801561001557600080fd5b5061270b806100256000396000f3fe608060405234801561001057600080fd5b506004361061007d5760003560e01c8063a87430ba1161005b578063a87430ba14610112578063e04070aa14610142578063e428251014610160578063f22ed22f1461016a5761007d565b806385b054c3146100825780638bf68028146100b25780639a4dc41e146100e2575b600080fd5b61009c60048036038101906100979190611b2d565b610186565b6040516100a99190611bf5565b60405180910390f35b6100cc60048036038101906100c79190611c75565b61037c565b6040516100d99190611dc6565b60405180910390f35b6100fc60048036038101906100f79190611de8565b6106f9565b6040516101099190611dc6565b60405180910390f35b61012c60048036038101906101279190611c75565b610e7a565b6040516101399190611e40565b60405180910390f35b61014a610e92565b6040516101579190611fb4565b60405180910390f35b610168611128565b005b610184600480360381019061017f9190611b2d565b6111f6565b005b60606000600360003373ffffffffffffffffffffffffffffffffffffffff1673ffffffffffffffffffffffffffffffffffffffff1681526020019081526020016000205490506000811461027b576000600282815481106101ea576101e9611fd6565b5b90600052602060002090600602019050836000015181600201908161020f9190612211565b5083602001518160030190816102259190612211565b50836040015181600401908161023b9190612211565b506040518060400160405280600381526020017f646f6e000000000000000000000000000000000000000000000000000000000081525092505050610377565b60008114801561029057506001600280549050145b1561033d57600060026000815481106102ac576102ab611fd6565b5b9060005260206000209060060201905083600001518160020190816102d19190612211565b5083602001518160030190816102e79190612211565b5083604001518160040190816102fd9190612211565b506040518060400160405280600381526020017f646f6e000000000000000000000000000000000000000000000000000000000081525092505050610377565b6040518060400160405280600981526020017f4e4f5420464f554e4400000000000000000000000000000000000000000000008152509150505b919050565b6103846118c3565b6000600360008473ffffffffffffffffffffffffffffffffffffffff1673ffffffffffffffffffffffffffffffffffffffff1681526020019081526020016000205490506000600282815481106103de576103dd611fd6565b5b90600052602060002090600602016040518060c00160405290816000820160009054906101000a900473ffffffffffffffffffffffffffffffffffffffff1673ffffffffffffffffffffffffffffffffffffffff1673ffffffffffffffffffffffffffffffffffffffff1681526020016001820154815260200160028201805461046790612034565b80601f016020809104026020016040519081016040528092919081815260200182805461049390612034565b80156104e05780601f106104b5576101008083540402835291602001916104e0565b820191906000526020600020905b8154815290600101906020018083116104c357829003601f168201915b505050505081526020016003820180546104f990612034565b80601f016020809104026020016040519081016040528092919081815260200182805461052590612034565b80156105725780601f1061054757610100808354040283529160200191610572565b820191906000526020600020905b81548152906001019060200180831161055557829003601f168201915b5050505050815260200160048201805461058b90612034565b80601f01602080910402602001604051908101604052809291908181526020018280546105b790612034565b80156106045780601f106105d957610100808354040283529160200191610604565b820191906000526020600020905b8154815290600101906020018083116105e757829003601f168201915b505050505081526020016005820160009054906101000a900460ff161515151581525050905061066b8473ffffffffffffffffffffffffffffffffffffffff16826000015173ffffffffffffffffffffffffffffffffffffffff161482600001518661173e565b8373ffffffffffffffffffffffffffffffffffffffff16816000015173ffffffffffffffffffffffffffffffffffffffff16036106b9576106af81600001516117dd565b80925050506106f4565b6040517f08c379a00000000000000000000000000000000000000000000000000000000081526004016106eb9061232f565b60405180910390fd5b919050565b6107016118c3565b6000600360003373ffffffffffffffffffffffffffffffffffffffff1673ffffffffffffffffffffffffffffffffffffffff16815260200190815260200160002054905060008103610abd5760006002828154811061076357610762611fd6565b5b90600052602060002090600602016040518060c00160405290816000820160009054906101000a900473ffffffffffffffffffffffffffffffffffffffff1673ffffffffffffffffffffffffffffffffffffffff1673ffffffffffffffffffffffffffffffffffffffff168152602001600182015481526020016002820180546107ec90612034565b80601f016020809104026020016040519081016040528092919081815260200182805461081890612034565b80156108655780601f1061083a57610100808354040283529160200191610865565b820191906000526020600020905b81548152906001019060200180831161084857829003601f168201915b5050505050815260200160038201805461087e90612034565b80601f01602080910402602001604051908101604052809291908181526020018280546108aa90612034565b80156108f75780601f106108cc576101008083540402835291602001916108f7565b820191906000526020600020905b8154815290600101906020018083116108da57829003601f168201915b5050505050815260200160048201805461091090612034565b80601f016020809104026020016040519081016040528092919081815260200182805461093c90612034565b80156109895780601f1061095e57610100808354040283529160200191610989565b820191906000526020600020905b81548152906001019060200180831161096c57829003601f168201915b505050505081526020016005820160009054906101000a900460ff16151515158152505090503373ffffffffffffffffffffffffffffffffffffffff16816000015173ffffffffffffffffffffffffffffffffffffffff1614610a21576040517f08c379a0000000000000000000000000000000000000000000000000000000008152600401610a189061239b565b60405180910390fd5b83604051602001610a3291906123f7565b604051602081830303815290604052805190602001208160600151604051602001610a5d91906123f7565b6040516020818303038152906040528051906020012014610ab3576040517f08c379a0000000000000000000000000000000000000000000000000000000008152600401610aaa9061245a565b60405180910390fd5b8092505050610e75565b600060028281548110610ad357610ad2611fd6565b5b90600052602060002090600602016040518060c00160405290816000820160009054906101000a900473ffffffffffffffffffffffffffffffffffffffff1673ffffffffffffffffffffffffffffffffffffffff1673ffffffffffffffffffffffffffffffffffffffff16815260200160018201548152602001600282018054610b5c90612034565b80601f0160208091040260200160405190810160405280929190818152602001828054610b8890612034565b8015610bd55780601f10610baa57610100808354040283529160200191610bd5565b820191906000526020600020905b815481529060010190602001808311610bb857829003601f168201915b50505050508152602001600382018054610bee90612034565b80601f0160208091040260200160405190810160405280929190818152602001828054610c1a90612034565b8015610c675780601f10610c3c57610100808354040283529160200191610c67565b820191906000526020600020905b815481529060010190602001808311610c4a57829003601f168201915b50505050508152602001600482018054610c8090612034565b80601f0160208091040260200160405190810160405280929190818152602001828054610cac90612034565b8015610cf95780601f10610cce57610100808354040283529160200191610cf9565b820191906000526020600020905b815481529060010190602001808311610cdc57829003601f168201915b505050505081526020016005820160009054906101000a900460ff1615151515815250509050600073ffffffffffffffffffffffffffffffffffffffff16816000015173ffffffffffffffffffffffffffffffffffffffff1603610d92576040517f08c379a0000000000000000000000000000000000000000000000000000000008152600401610d899061239b565b60405180910390fd5b600115158160a00151151503610ddd576040517f08c379a0000000000000000000000000000000000000000000000000000000008152600401610dd4906124c6565b60405180910390fd5b83604051602001610dee91906123f7565b604051602081830303815290604052805190602001208160600151604051602001610e1991906123f7565b6040516020818303038152906040528051906020012014610e6f576040517f08c379a0000000000000000000000000000000000000000000000000000000008152600401610e669061245a565b60405180910390fd5b80925050505b919050565b60036020528060005260406000206000915090505481565b606060006002805480602002602001604051908101604052809291908181526020016000905b8282101561111b57838290600052602060002090600602016040518060c00160405290816000820160009054906101000a900473ffffffffffffffffffffffffffffffffffffffff1673ffffffffffffffffffffffffffffffffffffffff1673ffffffffffffffffffffffffffffffffffffffff16815260200160018201548152602001600282018054610f4b90612034565b80601f0160208091040260200160405190810160405280929190818152602001828054610f7790612034565b8015610fc45780601f10610f9957610100808354040283529160200191610fc4565b820191906000526020600020905b815481529060010190602001808311610fa757829003601f168201915b50505050508152602001600382018054610fdd90612034565b80601f016020809104026020016040519081016040528092919081815260200182805461100990612034565b80156110565780601f1061102b57610100808354040283529160200191611056565b820191906000526020600020905b81548152906001019060200180831161103957829003601f168201915b5050505050815260200160048201805461106f90612034565b80601f016020809104026020016040519081016040528092919081815260200182805461109b90612034565b80156110e85780601f106110bd576101008083540402835291602001916110e8565b820191906000526020600020905b8154815290600101906020018083116110cb57829003601f168201915b505050505081526020016005820160009054906101000a900460ff16151515158152505081526020019060010190610eb8565b5050505090508091505090565b6000600360003373ffffffffffffffffffffffffffffffffffffffff1673ffffffffffffffffffffffffffffffffffffffff168152602001908152602001600020549050600081036111af576040517f08c379a00000000000000000000000000000000000000000000000000000000081526004016111a690612532565b60405180910390fd5b6000600282815481106111c5576111c4611fd6565b5b9060005260206000209060060201905060018160050160006101000a81548160ff0219169083151502179055505050565b60006112026000611876565b905061120e6000611884565b60005b6002805490508110156115665760006002828154811061123457611233611fd6565b5b90600052602060002090600602016040518060c00160405290816000820160009054906101000a900473ffffffffffffffffffffffffffffffffffffffff1673ffffffffffffffffffffffffffffffffffffffff1673ffffffffffffffffffffffffffffffffffffffff168152602001600182015481526020016002820180546112bd90612034565b80601f01602080910402602001604051908101604052809291908181526020018280546112e990612034565b80156113365780601f1061130b57610100808354040283529160200191611336565b820191906000526020600020905b81548152906001019060200180831161131957829003601f168201915b5050505050815260200160038201805461134f90612034565b80601f016020809104026020016040519081016040528092919081815260200182805461137b90612034565b80156113c85780601f1061139d576101008083540402835291602001916113c8565b820191906000526020600020905b8154815290600101906020018083116113ab57829003601f168201915b505050505081526020016004820180546113e190612034565b80601f016020809104026020016040519081016040528092919081815260200182805461140d90612034565b801561145a5780601f1061142f5761010080835404028352916020019161145a565b820191906000526020600020905b81548152906001019060200180831161143d57829003601f168201915b505050505081526020016005820160009054906101000a900460ff16151515158152505090503373ffffffffffffffffffffffffffffffffffffffff16816000015173ffffffffffffffffffffffffffffffffffffffff16148015611512575083602001516040516020016114cf91906123f7565b6040516020818303038152906040528051906020012081606001516040516020016114fa91906123f7565b60405160208183030381529060405280519060200120145b15611552576040517f08c379a00000000000000000000000000000000000000000000000000000000081526004016115499061259e565b60405180910390fd5b50808061155e906125ed565b915050611211565b5060006040518060c001604052803373ffffffffffffffffffffffffffffffffffffffff1681526020018381526020018460000151815260200184602001518152602001846040015181526020016000151581525090507f933a5161f919bc11ef20ed379773af0644be248c476033ca53625ab85d11eae43384600001516040516115f2929190612644565b60405180910390a1600154600360003373ffffffffffffffffffffffffffffffffffffffff1673ffffffffffffffffffffffffffffffffffffffff1681526020019081526020016000208190555060016000815480929190611653906125ed565b9190505550600281908060018154018082558091505060019003906000526020600020906006020160009091909190915060008201518160000160006101000a81548173ffffffffffffffffffffffffffffffffffffffff021916908373ffffffffffffffffffffffffffffffffffffffff1602179055506020820151816001015560408201518160020190816116ea9190612211565b5060608201518160030190816117009190612211565b5060808201518160040190816117169190612211565b5060a08201518160050160006101000a81548160ff0219169083151502179055505050505050565b6117d883838360405160240161175693929190612683565b6040516020818303038152906040527fd2763667000000000000000000000000000000000000000000000000000000007bffffffffffffffffffffffffffffffffffffffffffffffffffffffff19166020820180517bffffffffffffffffffffffffffffffffffffffffffffffffffffffff838183161783525050505061189a565b505050565b611873816040516024016117f191906126ba565b6040516020818303038152906040527f2c2ecbc2000000000000000000000000000000000000000000000000000000007bffffffffffffffffffffffffffffffffffffffffffffffffffffffff19166020820180517bffffffffffffffffffffffffffffffffffffffffffffffffffffffff838183161783525050505061189a565b50565b600081600001549050919050565b6001816000016000828254019250508190555050565b60008151905060006a636f6e736f6c652e6c6f679050602083016000808483855afa5050505050565b6040518060c00160405280600073ffffffffffffffffffffffffffffffffffffffff168152602001600081526020016060815260200160608152602001606081526020016000151581525090565b6000604051905090565b600080fd5b600080fd5b600080fd5b6000601f19601f8301169050919050565b7f4e487b7100000000000000000000000000000000000000000000000000000000600052604160045260246000fd5b6119738261192a565b810181811067ffffffffffffffff821117156119925761199161193b565b5b80604052505050565b60006119a5611911565b90506119b1828261196a565b919050565b600080fd5b600080fd5b600080fd5b600067ffffffffffffffff8211156119e0576119df61193b565b5b6119e98261192a565b9050602081019050919050565b82818337600083830152505050565b6000611a18611a13846119c5565b61199b565b905082815260208101848484011115611a3457611a336119c0565b5b611a3f8482856119f6565b509392505050565b600082601f830112611a5c57611a5b6119bb565b5b8135611a6c848260208601611a05565b91505092915050565b600060608284031215611a8b57611a8a611925565b5b611a95606061199b565b9050600082013567ffffffffffffffff811115611ab557611ab46119b6565b5b611ac184828501611a47565b600083015250602082013567ffffffffffffffff811115611ae557611ae46119b6565b5b611af184828501611a47565b602083015250604082013567ffffffffffffffff811115611b1557611b146119b6565b5b611b2184828501611a47565b60408301525092915050565b600060208284031215611b4357611b4261191b565b5b600082013567ffffffffffffffff811115611b6157611b60611920565b5b611b6d84828501611a75565b91505092915050565b600081519050919050565b600082825260208201905092915050565b60005b83811015611bb0578082015181840152602081019050611b95565b60008484015250505050565b6000611bc782611b76565b611bd18185611b81565b9350611be1818560208601611b92565b611bea8161192a565b840191505092915050565b60006020820190508181036000830152611c0f8184611bbc565b905092915050565b600073ffffffffffffffffffffffffffffffffffffffff82169050919050565b6000611c4282611c17565b9050919050565b611c5281611c37565b8114611c5d57600080fd5b50565b600081359050611c6f81611c49565b92915050565b600060208284031215611c8b57611c8a61191b565b5b6000611c9984828501611c60565b91505092915050565b611cab81611c37565b82525050565b6000819050919050565b611cc481611cb1565b82525050565b600082825260208201905092915050565b6000611ce682611b76565b611cf08185611cca565b9350611d00818560208601611b92565b611d098161192a565b840191505092915050565b60008115159050919050565b611d2981611d14565b82525050565b600060c083016000830151611d476000860182611ca2565b506020830151611d5a6020860182611cbb565b5060408301518482036040860152611d728282611cdb565b91505060608301518482036060860152611d8c8282611cdb565b91505060808301518482036080860152611da68282611cdb565b91505060a0830151611dbb60a0860182611d20565b508091505092915050565b60006020820190508181036000830152611de08184611d2f565b905092915050565b600060208284031215611dfe57611dfd61191b565b5b600082013567ffffffffffffffff811115611e1c57611e1b611920565b5b611e2884828501611a47565b91505092915050565b611e3a81611cb1565b82525050565b6000602082019050611e556000830184611e31565b92915050565b600081519050919050565b600082825260208201905092915050565b6000819050602082019050919050565b600060c083016000830151611e9f6000860182611ca2565b506020830151611eb26020860182611cbb565b5060408301518482036040860152611eca8282611cdb565b91505060608301518482036060860152611ee48282611cdb565b91505060808301518482036080860152611efe8282611cdb565b91505060a0830151611f1360a0860182611d20565b508091505092915050565b6000611f2a8383611e87565b905092915050565b6000602082019050919050565b6000611f4a82611e5b565b611f548185611e66565b935083602082028501611f6685611e77565b8060005b85811015611fa25784840389528151611f838582611f1e565b9450611f8e83611f32565b925060208a01995050600181019050611f6a565b50829750879550505050505092915050565b60006020820190508181036000830152611fce8184611f3f565b905092915050565b7f4e487b7100000000000000000000000000000000000000000000000000000000600052603260045260246000fd5b7f4e487b7100000000000000000000000000000000000000000000000000000000600052602260045260246000fd5b6000600282049050600182168061204c57607f821691505b60208210810361205f5761205e612005565b5b50919050565b60008190508160005260206000209050919050565b60006020601f8301049050919050565b600082821b905092915050565b6000600883026120c77fffffffffffffffffffffffffffffffffffffffffffffffffffffffffffffffff8261208a565b6120d1868361208a565b95508019841693508086168417925050509392505050565b6000819050919050565b600061210e61210961210484611cb1565b6120e9565b611cb1565b9050919050565b6000819050919050565b612128836120f3565b61213c61213482612115565b848454612097565b825550505050565b600090565b612151612144565b61215c81848461211f565b505050565b5b8181101561218057612175600082612149565b600181019050612162565b5050565b601f8211156121c55761219681612065565b61219f8461207a565b810160208510156121ae578190505b6121c26121ba8561207a565b830182612161565b50505b505050565b600082821c905092915050565b60006121e8600019846008026121ca565b1980831691505092915050565b600061220183836121d7565b9150826002028217905092915050565b61221a82611b76565b67ffffffffffffffff8111156122335761223261193b565b5b61223d8254612034565b612248828285612184565b600060209050601f83116001811461227b5760008415612269578287015190505b61227385826121f5565b8655506122db565b601f19841661228986612065565b60005b828110156122b15784890151825560018201915060208501945060208101905061228c565b868310156122ce57848901516122ca601f8916826121d7565b8355505b6001600288020188555050505b505050505050565b7f4e6f7420666f756e640000000000000000000000000000000000000000000000600082015250565b6000612319600983611b81565b9150612324826122e3565b602082019050919050565b600060208201905081810360008301526123488161230c565b9050919050565b7f496e76616c696420757365720000000000000000000000000000000000000000600082015250565b6000612385600c83611b81565b91506123908261234f565b602082019050919050565b600060208201905081810360008301526123b481612378565b9050919050565b600081905092915050565b60006123d182611b76565b6123db81856123bb565b93506123eb818560208601611b92565b80840191505092915050565b600061240382846123c6565b915081905092915050565b7f456d61696c20446f65736e74206d617463680000000000000000000000000000600082015250565b6000612444601283611b81565b915061244f8261240e565b602082019050919050565b6000602082019050818103600083015261247381612437565b9050919050565b7f557365722044656c657465640000000000000000000000000000000000000000600082015250565b60006124b0600c83611b81565b91506124bb8261247a565b602082019050919050565b600060208201905081810360008301526124df816124a3565b9050919050565b7f55736572206e6f7420666f756e64000000000000000000000000000000000000600082015250565b600061251c600e83611b81565b9150612527826124e6565b602082019050919050565b6000602082019050818103600083015261254b8161250f565b9050919050565b7f456d61696c20466f756e64000000000000000000000000000000000000000000600082015250565b6000612588600b83611b81565b915061259382612552565b602082019050919050565b600060208201905081810360008301526125b78161257b565b9050919050565b7f4e487b7100000000000000000000000000000000000000000000000000000000600052601160045260246000fd5b60006125f882611cb1565b91507fffffffffffffffffffffffffffffffffffffffffffffffffffffffffffffffff820361262a576126296125be565b5b600182019050919050565b61263e81611c37565b82525050565b60006040820190506126596000830185612635565b818103602083015261266b8184611bbc565b90509392505050565b61267d81611d14565b82525050565b60006060820190506126986000830186612674565b6126a56020830185612635565b6126b26040830184612635565b949350505050565b60006020820190506126cf6000830184612635565b9291505056fea2646970667358221220bd9d134a7242ed3daa939ef787901c369d52f2183f4a5bfb2ebea229a260457764736f6c63430008120033",
  "linkReferences": {},
  "deployedLinkReferences": {}
}