{
  "_format": "hh-sol-artifact-1",
  "contractName": "Transaction",
  "sourceName": "contracts/Transaction.sol",
  "abi": [
    {
      "anonymous": false,
      "inputs": [
        {
          "indexed": false,
          "internalType": "address",
          "name": "to",
          "type": "address"
        },
        {
          "indexed": false,
          "internalType": "address",
          "name": "from",
          "type": "address"
        },
        {
          "indexed": false,
          "internalType": "uint256",
          "name": "amount",
          "type": "uint256"
        }
      ],
      "name": "TrasactionDone",
      "type": "event"
    },
    {
      "inputs": [],
      "name": "ForRequest",
      "outputs": [
        {
          "components": [
            {
              "internalType": "uint256",
              "name": "id",
              "type": "uint256"
            },
            {
              "internalType": "address",
              "name": "from",
              "type": "address"
            },
            {
              "internalType": "address",
              "name": "to",
              "type": "address"
            },
            {
              "internalType": "uint256",
              "name": "amount",
              "type": "uint256"
            },
            {
              "internalType": "uint256",
              "name": "date",
              "type": "uint256"
            }
          ],
          "internalType": "struct Transaction.Request[]",
          "name": "",
          "type": "tuple[]"
        }
      ],
      "stateMutability": "view",
      "type": "function"
    },
    {
      "inputs": [],
      "name": "MyRequest",
      "outputs": [
        {
          "components": [
            {
              "internalType": "uint256",
              "name": "id",
              "type": "uint256"
            },
            {
              "internalType": "address",
              "name": "from",
              "type": "address"
            },
            {
              "internalType": "address",
              "name": "to",
              "type": "address"
            },
            {
              "internalType": "uint256",
              "name": "amount",
              "type": "uint256"
            },
            {
              "internalType": "uint256",
              "name": "date",
              "type": "uint256"
            }
          ],
          "internalType": "struct Transaction.Request[]",
          "name": "",
          "type": "tuple[]"
        }
      ],
      "stateMutability": "view",
      "type": "function"
    },
    {
      "inputs": [],
      "name": "MyTransactions",
      "outputs": [
        {
          "components": [
            {
              "internalType": "uint256",
              "name": "id",
              "type": "uint256"
            },
            {
              "internalType": "address",
              "name": "from",
              "type": "address"
            },
            {
              "internalType": "address",
              "name": "to",
              "type": "address"
            },
            {
              "internalType": "uint256",
              "name": "amount",
              "type": "uint256"
            },
            {
              "internalType": "uint256",
              "name": "date",
              "type": "uint256"
            }
          ],
          "internalType": "struct Transaction.Trans[]",
          "name": "",
          "type": "tuple[]"
        }
      ],
      "stateMutability": "view",
      "type": "function"
    },
    {
      "inputs": [
        {
          "internalType": "address",
          "name": "to",
          "type": "address"
        },
        {
          "internalType": "uint256",
          "name": "amount",
          "type": "uint256"
        },
        {
          "internalType": "uint256",
          "name": "timestamps",
          "type": "uint256"
        }
      ],
      "name": "RequestAmount",
      "outputs": [],
      "stateMutability": "nonpayable",
      "type": "function"
    },
    {
      "inputs": [],
      "name": "addFunds",
      "outputs": [],
      "stateMutability": "payable",
      "type": "function"
    },
    {
      "inputs": [
        {
          "internalType": "address",
          "name": "",
          "type": "address"
        }
      ],
      "name": "balances",
      "outputs": [
        {
          "internalType": "uint256",
          "name": "",
          "type": "uint256"
        }
      ],
      "stateMutability": "view",
      "type": "function"
    },
    {
      "inputs": [],
      "name": "myBalance",
      "outputs": [
        {
          "internalType": "uint256",
          "name": "",
          "type": "uint256"
        }
      ],
      "stateMutability": "view",
      "type": "function"
    },
    {
      "inputs": [
        {
          "internalType": "address",
          "name": "to",
          "type": "address"
        },
        {
          "internalType": "uint256",
          "name": "amount",
          "type": "uint256"
        },
        {
          "internalType": "uint256",
          "name": "timestamps",
          "type": "uint256"
        }
      ],
      "name": "sendAmount",
      "outputs": [],
      "stateMutability": "payable",
      "type": "function"
    }
  ],
  "bytecode": "0x608060405234801561001057600080fd5b50611587806100206000396000f3fe60806040526004361061007b5760003560e01c806398ddc6e71161004e57806398ddc6e71461013c578063a26759cb14610167578063c9116b6914610171578063ea41546e1461019c5761007b565b80632234d2771461008057806327e235e3146100ab5780634bcadc78146100e857806369db6dd114610113575b600080fd5b34801561008c57600080fd5b506100956101b8565b6040516100a291906110fc565b60405180910390f35b3480156100b757600080fd5b506100d260048036038101906100cd919061114f565b610568565b6040516100df919061118b565b60405180910390f35b3480156100f457600080fd5b506100fd610580565b60405161010a91906112bd565b60405180910390f35b34801561011f57600080fd5b5061013a6004803603810190610135919061130b565b6107a8565b005b34801561014857600080fd5b506101516108fe565b60405161015e91906110fc565b60405180910390f35b61016f610aca565b005b34801561017d57600080fd5b50610186610b22565b604051610193919061118b565b60405180910390f35b6101b660048036038101906101b1919061130b565b610b6e565b005b6060600060048054905067ffffffffffffffff8111156101db576101da61135e565b5b60405190808252806020026020018201604052801561021457816020015b610201610ed5565b8152602001906001900390816101f95790505b50905060006102576040518060400160405280600781526020017f48656c6c6f203100000000000000000000000000000000000000000000000000815250610d53565b6000600460008154811061026e5761026d61138d565b5b90600052602060002090600502016040518060a0016040529081600082015481526020016001820160009054906101000a900473ffffffffffffffffffffffffffffffffffffffff1673ffffffffffffffffffffffffffffffffffffffff1673ffffffffffffffffffffffffffffffffffffffff1681526020016002820160009054906101000a900473ffffffffffffffffffffffffffffffffffffffff1673ffffffffffffffffffffffffffffffffffffffff1673ffffffffffffffffffffffffffffffffffffffff168152602001600382015481526020016004820154815250509050610361816020015133610dec565b60005b600480549050811015610520573373ffffffffffffffffffffffffffffffffffffffff166004828154811061039c5761039b61138d565b5b906000526020600020906005020160010160009054906101000a900473ffffffffffffffffffffffffffffffffffffffff1673ffffffffffffffffffffffffffffffffffffffff160361050d57600481815481106103fd576103fc61138d565b5b90600052602060002090600502016040518060a0016040529081600082015481526020016001820160009054906101000a900473ffffffffffffffffffffffffffffffffffffffff1673ffffffffffffffffffffffffffffffffffffffff1673ffffffffffffffffffffffffffffffffffffffff1681526020016002820160009054906101000a900473ffffffffffffffffffffffffffffffffffffffff1673ffffffffffffffffffffffffffffffffffffffff1673ffffffffffffffffffffffffffffffffffffffff168152602001600382015481526020016004820154815250508484815181106104f3576104f261138d565b5b60200260200101819052508280610509906113eb565b9350505b8080610518906113eb565b915050610364565b5061055f6040518060400160405280600581526020017f48656c6c6f000000000000000000000000000000000000000000000000000000815250610d53565b82935050505090565b60026020528060005260406000206000915090505481565b6060600060038054905067ffffffffffffffff8111156105a3576105a261135e565b5b6040519080825280602002602001820160405280156105dc57816020015b6105c9610f30565b8152602001906001900390816105c15790505b5090506000805b60038054905081101561079f573373ffffffffffffffffffffffffffffffffffffffff166003828154811061061b5761061a61138d565b5b906000526020600020906005020160010160009054906101000a900473ffffffffffffffffffffffffffffffffffffffff1673ffffffffffffffffffffffffffffffffffffffff160361078c576003818154811061067c5761067b61138d565b5b90600052602060002090600502016040518060a0016040529081600082015481526020016001820160009054906101000a900473ffffffffffffffffffffffffffffffffffffffff1673ffffffffffffffffffffffffffffffffffffffff1673ffffffffffffffffffffffffffffffffffffffff1681526020016002820160009054906101000a900473ffffffffffffffffffffffffffffffffffffffff1673ffffffffffffffffffffffffffffffffffffffff1673ffffffffffffffffffffffffffffffffffffffff168152602001600382015481526020016004820154815250508383815181106107725761077161138d565b5b60200260200101819052508180610788906113eb565b9250505b8080610797906113eb565b9150506105e3565b50819250505090565b60008190506107b76000610e88565b60006107c36000610e9e565b905060006040518060a001604052808381526020013373ffffffffffffffffffffffffffffffffffffffff1681526020018773ffffffffffffffffffffffffffffffffffffffff16815260200186815260200184815250905060048190806001815401808255809150506001900390600052602060002090600502016000909190919091506000820151816000015560208201518160010160006101000a81548173ffffffffffffffffffffffffffffffffffffffff021916908373ffffffffffffffffffffffffffffffffffffffff16021790555060408201518160020160006101000a81548173ffffffffffffffffffffffffffffffffffffffff021916908373ffffffffffffffffffffffffffffffffffffffff16021790555060608201518160030155608082015181600401555050505050505050565b6060806000805b600480549050811015610ac1573373ffffffffffffffffffffffffffffffffffffffff166003828154811061093d5761093c61138d565b5b906000526020600020906005020160020160009054906101000a900473ffffffffffffffffffffffffffffffffffffffff1673ffffffffffffffffffffffffffffffffffffffff1603610aae576004818154811061099e5761099d61138d565b5b90600052602060002090600502016040518060a0016040529081600082015481526020016001820160009054906101000a900473ffffffffffffffffffffffffffffffffffffffff1673ffffffffffffffffffffffffffffffffffffffff1673ffffffffffffffffffffffffffffffffffffffff1681526020016002820160009054906101000a900473ffffffffffffffffffffffffffffffffffffffff1673ffffffffffffffffffffffffffffffffffffffff1673ffffffffffffffffffffffffffffffffffffffff16815260200160038201548152602001600482015481525050838381518110610a9457610a9361138d565b5b60200260200101819052508180610aaa906113eb565b9250505b8080610ab9906113eb565b915050610905565b50819250505090565b34600260003373ffffffffffffffffffffffffffffffffffffffff1673ffffffffffffffffffffffffffffffffffffffff1681526020019081526020016000206000828254610b199190611433565b92505081905550565b600080600260003373ffffffffffffffffffffffffffffffffffffffff1673ffffffffffffffffffffffffffffffffffffffff1681526020019081526020016000205490508091505090565b6000600260003373ffffffffffffffffffffffffffffffffffffffff1673ffffffffffffffffffffffffffffffffffffffff16815260200190815260200160002054905082811115610d4d578373ffffffffffffffffffffffffffffffffffffffff166108fc849081150290604051600060405180830381858888f19350505050158015610c00573d6000803e3d6000fd5b50610c0b6001610e88565b6000610c176001610e9e565b905060006040518060a001604052808381526020013373ffffffffffffffffffffffffffffffffffffffff1681526020018773ffffffffffffffffffffffffffffffffffffffff16815260200186815260200185815250905060038190806001815401808255809150506001900390600052602060002090600502016000909190919091506000820151816000015560208201518160010160006101000a81548173ffffffffffffffffffffffffffffffffffffffff021916908373ffffffffffffffffffffffffffffffffffffffff16021790555060408201518160020160006101000a81548173ffffffffffffffffffffffffffffffffffffffff021916908373ffffffffffffffffffffffffffffffffffffffff1602179055506060820151816003015560808201518160040155505050505b50505050565b610de981604051602401610d6791906114f7565b6040516020818303038152906040527f41304fac000000000000000000000000000000000000000000000000000000007bffffffffffffffffffffffffffffffffffffffffffffffffffffffff19166020820180517bffffffffffffffffffffffffffffffffffffffffffffffffffffffff8381831617835250505050610eac565b50565b610e848282604051602401610e02929190611528565b6040516020818303038152906040527fdaf0d4aa000000000000000000000000000000000000000000000000000000007bffffffffffffffffffffffffffffffffffffffffffffffffffffffff19166020820180517bffffffffffffffffffffffffffffffffffffffffffffffffffffffff8381831617835250505050610eac565b5050565b6001816000016000828254019250508190555050565b600081600001549050919050565b60008151905060006a636f6e736f6c652e6c6f679050602083016000808483855afa5050505050565b6040518060a0016040528060008152602001600073ffffffffffffffffffffffffffffffffffffffff168152602001600073ffffffffffffffffffffffffffffffffffffffff16815260200160008152602001600081525090565b6040518060a0016040528060008152602001600073ffffffffffffffffffffffffffffffffffffffff168152602001600073ffffffffffffffffffffffffffffffffffffffff16815260200160008152602001600081525090565b600081519050919050565b600082825260208201905092915050565b6000819050602082019050919050565b6000819050919050565b610fca81610fb7565b82525050565b600073ffffffffffffffffffffffffffffffffffffffff82169050919050565b6000610ffb82610fd0565b9050919050565b61100b81610ff0565b82525050565b60a0820160008201516110276000850182610fc1565b50602082015161103a6020850182611002565b50604082015161104d6040850182611002565b5060608201516110606060850182610fc1565b5060808201516110736080850182610fc1565b50505050565b60006110858383611011565b60a08301905092915050565b6000602082019050919050565b60006110a982610f8b565b6110b38185610f96565b93506110be83610fa7565b8060005b838110156110ef5781516110d68882611079565b97506110e183611091565b9250506001810190506110c2565b5085935050505092915050565b60006020820190508181036000830152611116818461109e565b905092915050565b600080fd5b61112c81610ff0565b811461113757600080fd5b50565b60008135905061114981611123565b92915050565b6000602082840312156111655761116461111e565b5b60006111738482850161113a565b91505092915050565b61118581610fb7565b82525050565b60006020820190506111a0600083018461117c565b92915050565b600081519050919050565b600082825260208201905092915050565b6000819050602082019050919050565b60a0820160008201516111e86000850182610fc1565b5060208201516111fb6020850182611002565b50604082015161120e6040850182611002565b5060608201516112216060850182610fc1565b5060808201516112346080850182610fc1565b50505050565b600061124683836111d2565b60a08301905092915050565b6000602082019050919050565b600061126a826111a6565b61127481856111b1565b935061127f836111c2565b8060005b838110156112b0578151611297888261123a565b97506112a283611252565b925050600181019050611283565b5085935050505092915050565b600060208201905081810360008301526112d7818461125f565b905092915050565b6112e881610fb7565b81146112f357600080fd5b50565b600081359050611305816112df565b92915050565b6000806000606084860312156113245761132361111e565b5b60006113328682870161113a565b9350506020611343868287016112f6565b9250506040611354868287016112f6565b9150509250925092565b7f4e487b7100000000000000000000000000000000000000000000000000000000600052604160045260246000fd5b7f4e487b7100000000000000000000000000000000000000000000000000000000600052603260045260246000fd5b7f4e487b7100000000000000000000000000000000000000000000000000000000600052601160045260246000fd5b60006113f682610fb7565b91507fffffffffffffffffffffffffffffffffffffffffffffffffffffffffffffffff8203611428576114276113bc565b5b600182019050919050565b600061143e82610fb7565b915061144983610fb7565b9250828201905080821115611461576114606113bc565b5b92915050565b600081519050919050565b600082825260208201905092915050565b60005b838110156114a1578082015181840152602081019050611486565b60008484015250505050565b6000601f19601f8301169050919050565b60006114c982611467565b6114d38185611472565b93506114e3818560208601611483565b6114ec816114ad565b840191505092915050565b6000602082019050818103600083015261151181846114be565b905092915050565b61152281610ff0565b82525050565b600060408201905061153d6000830185611519565b61154a6020830184611519565b939250505056fea2646970667358221220fb10d850e28b17531e726e48def97c68ac5569aa80b7e88e207e2fc7270cdc3464736f6c63430008120033",
  "linkReferences": {},
  "deployedLinkReferences": {}
}