{
  "_format": "hh-sol-artifact-1",
  "contractName": "TwidCoin",
  "sourceName": "contracts/TwidCoin.sol",
  "abi": [
    {
      "inputs": [
        {
          "internalType": "address",
          "name": "a",
          "type": "address"
        }
      ],
      "stateMutability": "nonpayable",
      "type": "constructor"
    },
    {
      "inputs": [],
      "name": "addFunds",
      "outputs": [],
      "stateMutability": "payable",
      "type": "function"
    },
    {
      "inputs": [
        {
          "internalType": "address",
          "name": "",
          "type": "address"
        },
        {
          "internalType": "address",
          "name": "",
          "type": "address"
        }
      ],
      "name": "approval",
      "outputs": [
        {
          "internalType": "bool",
          "name": "",
          "type": "bool"
        }
      ],
      "stateMutability": "view",
      "type": "function"
    },
    {
      "inputs": [
        {
          "internalType": "address",
          "name": "",
          "type": "address"
        }
      ],
      "name": "balances",
      "outputs": [
        {
          "internalType": "uint256",
          "name": "",
          "type": "uint256"
        }
      ],
      "stateMutability": "view",
      "type": "function"
    },
    {
      "inputs": [
        {
          "internalType": "uint256",
          "name": "amount",
          "type": "uint256"
        }
      ],
      "name": "buyCoin",
      "outputs": [],
      "stateMutability": "payable",
      "type": "function"
    },
    {
      "inputs": [],
      "name": "coinCost",
      "outputs": [
        {
          "internalType": "uint256",
          "name": "",
          "type": "uint256"
        }
      ],
      "stateMutability": "view",
      "type": "function"
    },
    {
      "inputs": [
        {
          "internalType": "address",
          "name": "",
          "type": "address"
        }
      ],
      "name": "coins",
      "outputs": [
        {
          "internalType": "uint256",
          "name": "",
          "type": "uint256"
        }
      ],
      "stateMutability": "view",
      "type": "function"
    },
    {
      "inputs": [],
      "name": "getBalance",
      "outputs": [
        {
          "internalType": "uint256",
          "name": "",
          "type": "uint256"
        }
      ],
      "stateMutability": "view",
      "type": "function"
    },
    {
      "inputs": [],
      "name": "getOwner",
      "outputs": [
        {
          "internalType": "address",
          "name": "",
          "type": "address"
        }
      ],
      "stateMutability": "view",
      "type": "function"
    },
    {
      "inputs": [],
      "name": "myCoinAndValue",
      "outputs": [
        {
          "internalType": "uint256",
          "name": "",
          "type": "uint256"
        },
        {
          "internalType": "uint256",
          "name": "",
          "type": "uint256"
        }
      ],
      "stateMutability": "view",
      "type": "function"
    },
    {
      "inputs": [
        {
          "internalType": "address",
          "name": "receiver",
          "type": "address"
        }
      ],
      "name": "seeToggle",
      "outputs": [
        {
          "internalType": "bool",
          "name": "",
          "type": "bool"
        }
      ],
      "stateMutability": "view",
      "type": "function"
    },
    {
      "inputs": [
        {
          "internalType": "uint256",
          "name": "value",
          "type": "uint256"
        }
      ],
      "name": "setCoinCost",
      "outputs": [],
      "stateMutability": "nonpayable",
      "type": "function"
    },
    {
      "inputs": [
        {
          "internalType": "address",
          "name": "receiver",
          "type": "address"
        }
      ],
      "name": "toggleApprovel",
      "outputs": [],
      "stateMutability": "nonpayable",
      "type": "function"
    },
    {
      "inputs": [
        {
          "internalType": "address",
          "name": "receiver",
          "type": "address"
        },
        {
          "internalType": "uint256",
          "name": "amount",
          "type": "uint256"
        }
      ],
      "name": "transfer",
      "outputs": [],
      "stateMutability": "payable",
      "type": "function"
    },
    {
      "inputs": [
        {
          "internalType": "uint256",
          "name": "amount",
          "type": "uint256"
        }
      ],
      "name": "withdraw",
      "outputs": [],
      "stateMutability": "payable",
      "type": "function"
    }
  ],
  "bytecode": "0x6080604052633b9aca006003553480156200001957600080fd5b50604051620013ac380380620013ac83398181016040528101906200003f9190620000f0565b806000806101000a81548173ffffffffffffffffffffffffffffffffffffffff021916908373ffffffffffffffffffffffffffffffffffffffff1602179055505062000122565b600080fd5b600073ffffffffffffffffffffffffffffffffffffffff82169050919050565b6000620000b8826200008b565b9050919050565b620000ca81620000ab565b8114620000d657600080fd5b50565b600081519050620000ea81620000bf565b92915050565b60006020828403121562000109576200010862000086565b5b60006200011984828501620000d9565b91505092915050565b61127a80620001326000396000f3fe6080604052600436106100dd5760003560e01c8063893d20e81161007f578063a9059cbb11610059578063a9059cbb14610288578063b2fde211146102a4578063e1270b6e146102cd578063e22da61c1461030a576100dd565b8063893d20e814610216578063a26759cb14610241578063a5ce841e1461024b576100dd565b80632e1a7d4d116100bb5780632e1a7d4d1461017657806334e56c33146101925780637d0f7a88146101bd57806387792574146101fa576100dd565b806312065fe0146100e2578063273cc11e1461010d57806327e235e314610139575b600080fd5b3480156100ee57600080fd5b506100f7610333565b6040516101049190610d83565b60405180910390f35b34801561011957600080fd5b5061012261037a565b604051610130929190610d9e565b60405180910390f35b34801561014557600080fd5b50610160600480360381019061015b9190610e2a565b610412565b60405161016d9190610d83565b60405180910390f35b610190600480360381019061018b9190610e83565b61042a565b005b34801561019e57600080fd5b506101a761042d565b6040516101b49190610d83565b60405180910390f35b3480156101c957600080fd5b506101e460048036038101906101df9190610e2a565b610433565b6040516101f19190610d83565b60405180910390f35b610214600480360381019061020f9190610e83565b61044b565b005b34801561022257600080fd5b5061022b610660565b6040516102389190610ebf565b60405180910390f35b610249610689565b005b34801561025757600080fd5b50610272600480360381019061026d9190610e2a565b6106e1565b60405161027f9190610ef5565b60405180910390f35b6102a2600480360381019061029d9190610f10565b610774565b005b3480156102b057600080fd5b506102cb60048036038101906102c69190610e83565b61098b565b005b3480156102d957600080fd5b506102f460048036038101906102ef9190610f50565b610a23565b6040516103019190610ef5565b60405180910390f35b34801561031657600080fd5b50610331600480360381019061032c9190610e2a565b610a52565b005b6000600160003373ffffffffffffffffffffffffffffffffffffffff1673ffffffffffffffffffffffffffffffffffffffff16815260200190815260200160002054905090565b600080600260003373ffffffffffffffffffffffffffffffffffffffff1673ffffffffffffffffffffffffffffffffffffffff16815260200190815260200160002054600354600260003373ffffffffffffffffffffffffffffffffffffffff1673ffffffffffffffffffffffffffffffffffffffff1681526020019081526020016000205461040a9190610fbf565b915091509091565b60016020528060005260406000206000915090505481565b50565b60035481565b60026020528060005260406000206000915090505481565b8061045581610b73565b80600160003373ffffffffffffffffffffffffffffffffffffffff1673ffffffffffffffffffffffffffffffffffffffff16815260200190815260200160002054116104d6576040517f08c379a00000000000000000000000000000000000000000000000000000000081526004016104cd9061105e565b60405180910390fd5b81600160003373ffffffffffffffffffffffffffffffffffffffff1673ffffffffffffffffffffffffffffffffffffffff1681526020019081526020016000206000828254610525919061107e565b9250508190555081600160008060009054906101000a900473ffffffffffffffffffffffffffffffffffffffff1673ffffffffffffffffffffffffffffffffffffffff1673ffffffffffffffffffffffffffffffffffffffff168152602001908152602001600020600082825461059c91906110b2565b92505081905550600354826105b19190611115565b600260003373ffffffffffffffffffffffffffffffffffffffff1673ffffffffffffffffffffffffffffffffffffffff16815260200190815260200160002060008282546105ff91906110b2565b9250508190555061065c600354836106179190611115565b600260003373ffffffffffffffffffffffffffffffffffffffff1673ffffffffffffffffffffffffffffffffffffffff16815260200190815260200160002054610c0c565b5050565b60008060009054906101000a900473ffffffffffffffffffffffffffffffffffffffff16905090565b34600160003373ffffffffffffffffffffffffffffffffffffffff1673ffffffffffffffffffffffffffffffffffffffff16815260200190815260200160002060008282546106d891906110b2565b92505081905550565b6000600460008373ffffffffffffffffffffffffffffffffffffffff1673ffffffffffffffffffffffffffffffffffffffff16815260200190815260200160002060003373ffffffffffffffffffffffffffffffffffffffff1673ffffffffffffffffffffffffffffffffffffffff16815260200190815260200160002060009054906101000a900460ff169050919050565b8161077e81610ca8565b60011515600460008373ffffffffffffffffffffffffffffffffffffffff1673ffffffffffffffffffffffffffffffffffffffff16815260200190815260200160002060003373ffffffffffffffffffffffffffffffffffffffff1673ffffffffffffffffffffffffffffffffffffffff16815260200190815260200160002060009054906101000a900460ff1615151461084e576040517f08c379a000000000000000000000000000000000000000000000000000000000815260040161084590611192565b60405180910390fd5b8161085881610b73565b80600160003373ffffffffffffffffffffffffffffffffffffffff1673ffffffffffffffffffffffffffffffffffffffff16815260200190815260200160002054116108d9576040517f08c379a00000000000000000000000000000000000000000000000000000000081526004016108d09061105e565b60405180910390fd5b82600160003373ffffffffffffffffffffffffffffffffffffffff1673ffffffffffffffffffffffffffffffffffffffff1681526020019081526020016000206000828254610928919061107e565b9250508190555082600160008673ffffffffffffffffffffffffffffffffffffffff1673ffffffffffffffffffffffffffffffffffffffff168152602001908152602001600020600082825461097e91906110b2565b9250508190555050505050565b60008054906101000a900473ffffffffffffffffffffffffffffffffffffffff1673ffffffffffffffffffffffffffffffffffffffff163373ffffffffffffffffffffffffffffffffffffffff1614610a19576040517f08c379a0000000000000000000000000000000000000000000000000000000008152600401610a1090611224565b60405180910390fd5b8060038190555050565b60046020528160005260406000206020528060005260406000206000915091509054906101000a900460ff1681565b600460008273ffffffffffffffffffffffffffffffffffffffff1673ffffffffffffffffffffffffffffffffffffffff16815260200190815260200160002060003373ffffffffffffffffffffffffffffffffffffffff1673ffffffffffffffffffffffffffffffffffffffff16815260200190815260200160002060009054906101000a900460ff1615600460008373ffffffffffffffffffffffffffffffffffffffff1673ffffffffffffffffffffffffffffffffffffffff16815260200190815260200160002060003373ffffffffffffffffffffffffffffffffffffffff1673ffffffffffffffffffffffffffffffffffffffff16815260200190815260200160002060006101000a81548160ff02191690831515021790555050565b610c0981604051602401610b879190610d83565b6040516020818303038152906040527ff82c50f1000000000000000000000000000000000000000000000000000000007bffffffffffffffffffffffffffffffffffffffffffffffffffffffff19166020820180517bffffffffffffffffffffffffffffffffffffffffffffffffffffffff8381831617835250505050610d41565b50565b610ca48282604051602401610c22929190610d9e565b6040516020818303038152906040527ff666715a000000000000000000000000000000000000000000000000000000007bffffffffffffffffffffffffffffffffffffffffffffffffffffffff19166020820180517bffffffffffffffffffffffffffffffffffffffffffffffffffffffff8381831617835250505050610d41565b5050565b610d3e81604051602401610cbc9190610ebf565b6040516020818303038152906040527f2c2ecbc2000000000000000000000000000000000000000000000000000000007bffffffffffffffffffffffffffffffffffffffffffffffffffffffff19166020820180517bffffffffffffffffffffffffffffffffffffffffffffffffffffffff8381831617835250505050610d41565b50565b60008151905060006a636f6e736f6c652e6c6f679050602083016000808483855afa5050505050565b6000819050919050565b610d7d81610d6a565b82525050565b6000602082019050610d986000830184610d74565b92915050565b6000604082019050610db36000830185610d74565b610dc06020830184610d74565b9392505050565b600080fd5b600073ffffffffffffffffffffffffffffffffffffffff82169050919050565b6000610df782610dcc565b9050919050565b610e0781610dec565b8114610e1257600080fd5b50565b600081359050610e2481610dfe565b92915050565b600060208284031215610e4057610e3f610dc7565b5b6000610e4e84828501610e15565b91505092915050565b610e6081610d6a565b8114610e6b57600080fd5b50565b600081359050610e7d81610e57565b92915050565b600060208284031215610e9957610e98610dc7565b5b6000610ea784828501610e6e565b91505092915050565b610eb981610dec565b82525050565b6000602082019050610ed46000830184610eb0565b92915050565b60008115159050919050565b610eef81610eda565b82525050565b6000602082019050610f0a6000830184610ee6565b92915050565b60008060408385031215610f2757610f26610dc7565b5b6000610f3585828601610e15565b9250506020610f4685828601610e6e565b9150509250929050565b60008060408385031215610f6757610f66610dc7565b5b6000610f7585828601610e15565b9250506020610f8685828601610e15565b9150509250929050565b7f4e487b7100000000000000000000000000000000000000000000000000000000600052601160045260246000fd5b6000610fca82610d6a565b9150610fd583610d6a565b9250828202610fe381610d6a565b91508282048414831517610ffa57610ff9610f90565b5b5092915050565b600082825260208201905092915050565b7f20616d6f756e74206973206c6573730000000000000000000000000000000000600082015250565b6000611048600f83611001565b915061105382611012565b602082019050919050565b600060208201905081810360008301526110778161103b565b9050919050565b600061108982610d6a565b915061109483610d6a565b92508282039050818111156110ac576110ab610f90565b5b92915050565b60006110bd82610d6a565b91506110c883610d6a565b92508282019050808211156110e0576110df610f90565b5b92915050565b7f4e487b7100000000000000000000000000000000000000000000000000000000600052601260045260246000fd5b600061112082610d6a565b915061112b83610d6a565b92508261113b5761113a6110e6565b5b828204905092915050565b7f20617070726f76616c206e6f7420666f756e6400000000000000000000000000600082015250565b600061117c601383611001565b915061118782611146565b602082019050919050565b600060208201905081810360008301526111ab8161116f565b9050919050565b7f4f6e6c792074686520636f6e7472616374206f776e65722063616e2063616c6c60008201527f20746869732066756e6374696f6e2e0000000000000000000000000000000000602082015250565b600061120e602f83611001565b9150611219826111b2565b604082019050919050565b6000602082019050818103600083015261123d81611201565b905091905056fea2646970667358221220bfee96f54690314da73c5825a06a6c6d1cf99503217f8fa62b9b91ee20ea30e864736f6c63430008120033",
  "linkReferences": {},
  "deployedLinkReferences": {}
}