{
  "_format": "hh-sol-artifact-1",
  "contractName": "User",
  "sourceName": "contracts/User.sol",
  "abi": [
    {
      "anonymous": false,
      "inputs": [
        {
          "indexed": false,
          "internalType": "address",
          "name": "from",
          "type": "address"
        },
        {
          "indexed": false,
          "internalType": "string",
          "name": "name",
          "type": "string"
        }
      ],
      "name": "UserSignup",
      "type": "event"
    },
    {
      "inputs": [],
      "name": "delete_user",
      "outputs": [],
      "stateMutability": "nonpayable",
      "type": "function"
    },
    {
      "inputs": [
        {
          "internalType": "address",
          "name": "a",
          "type": "address"
        }
      ],
      "name": "getProfileDetails",
      "outputs": [
        {
          "components": [
            {
              "internalType": "address",
              "name": "wallet",
              "type": "address"
            },
            {
              "internalType": "uint256",
              "name": "id",
              "type": "uint256"
            },
            {
              "internalType": "string",
              "name": "user_name",
              "type": "string"
            },
            {
              "internalType": "string",
              "name": "email",
              "type": "string"
            },
            {
              "internalType": "string",
              "name": "image_url",
              "type": "string"
            },
            {
              "internalType": "bool",
              "name": "isDeleted",
              "type": "bool"
            }
          ],
          "internalType": "struct User.UserModal",
          "name": "",
          "type": "tuple"
        }
      ],
      "stateMutability": "view",
      "type": "function"
    },
    {
      "inputs": [],
      "name": "get_all_users",
      "outputs": [
        {
          "components": [
            {
              "internalType": "address",
              "name": "wallet",
              "type": "address"
            },
            {
              "internalType": "uint256",
              "name": "id",
              "type": "uint256"
            },
            {
              "internalType": "string",
              "name": "user_name",
              "type": "string"
            },
            {
              "internalType": "string",
              "name": "email",
              "type": "string"
            },
            {
              "internalType": "string",
              "name": "image_url",
              "type": "string"
            },
            {
              "internalType": "bool",
              "name": "isDeleted",
              "type": "bool"
            }
          ],
          "internalType": "struct User.UserModal[]",
          "name": "",
          "type": "tuple[]"
        }
      ],
      "stateMutability": "view",
      "type": "function"
    },
    {
      "inputs": [
        {
          "internalType": "string",
          "name": "email",
          "type": "string"
        },
        {
          "internalType": "address",
          "name": "a",
          "type": "address"
        }
      ],
      "name": "signin",
      "outputs": [
        {
          "components": [
            {
              "internalType": "address",
              "name": "wallet",
              "type": "address"
            },
            {
              "internalType": "uint256",
              "name": "id",
              "type": "uint256"
            },
            {
              "internalType": "string",
              "name": "user_name",
              "type": "string"
            },
            {
              "internalType": "string",
              "name": "email",
              "type": "string"
            },
            {
              "internalType": "string",
              "name": "image_url",
              "type": "string"
            },
            {
              "internalType": "bool",
              "name": "isDeleted",
              "type": "bool"
            }
          ],
          "internalType": "struct User.UserModal",
          "name": "b",
          "type": "tuple"
        }
      ],
      "stateMutability": "view",
      "type": "function"
    },
    {
      "inputs": [
        {
          "components": [
            {
              "internalType": "string",
              "name": "user_name",
              "type": "string"
            },
            {
              "internalType": "string",
              "name": "email",
              "type": "string"
            },
            {
              "internalType": "string",
              "name": "image_url",
              "type": "string"
            }
          ],
          "internalType": "struct User.UserDTO",
          "name": "object",
          "type": "tuple"
        }
      ],
      "name": "signup",
      "outputs": [],
      "stateMutability": "nonpayable",
      "type": "function"
    },
    {
      "inputs": [
        {
          "components": [
            {
              "internalType": "string",
              "name": "user_name",
              "type": "string"
            },
            {
              "internalType": "string",
              "name": "email",
              "type": "string"
            },
            {
              "internalType": "string",
              "name": "image_url",
              "type": "string"
            }
          ],
          "internalType": "struct User.UserDTO",
          "name": "object",
          "type": "tuple"
        }
      ],
      "name": "update_profile",
      "outputs": [
        {
          "internalType": "string",
          "name": "",
          "type": "string"
        }
      ],
      "stateMutability": "nonpayable",
      "type": "function"
    },
    {
      "inputs": [
        {
          "internalType": "address",
          "name": "",
          "type": "address"
        }
      ],
      "name": "users",
      "outputs": [
        {
          "internalType": "uint256",
          "name": "",
          "type": "uint256"
        }
      ],
      "stateMutability": "view",
      "type": "function"
    }
  ],
  "bytecode": "0x6080604052600060015534801561001557600080fd5b5061277c806100256000396000f3fe608060405234801561001057600080fd5b506004361061007d5760003560e01c8063a87430ba1161005b578063a87430ba14610112578063e04070aa14610142578063e428251014610160578063f22ed22f1461016a5761007d565b806385b054c3146100825780638bf68028146100b25780638d57a37a146100e2575b600080fd5b61009c60048036038101906100979190611be2565b610186565b6040516100a99190611caa565b60405180910390f35b6100cc60048036038101906100c79190611d2a565b61037c565b6040516100d99190611e7b565b60405180910390f35b6100fc60048036038101906100f79190611e9d565b6106ea565b6040516101099190611e7b565b60405180910390f35b61012c60048036038101906101279190611d2a565b610f2c565b6040516101399190611f08565b60405180910390f35b61014a610f44565b604051610157919061207c565b60405180910390f35b6101686111da565b005b610184600480360381019061017f9190611be2565b6112a8565b005b60606000600360003373ffffffffffffffffffffffffffffffffffffffff1673ffffffffffffffffffffffffffffffffffffffff1681526020019081526020016000205490506000811461027b576000600282815481106101ea576101e961209e565b5b90600052602060002090600602019050836000015181600201908161020f91906122d9565b50836020015181600301908161022591906122d9565b50836040015181600401908161023b91906122d9565b506040518060400160405280600381526020017f646f6e000000000000000000000000000000000000000000000000000000000081525092505050610377565b60008114801561029057506001600280549050145b1561033d57600060026000815481106102ac576102ab61209e565b5b9060005260206000209060060201905083600001518160020190816102d191906122d9565b5083602001518160030190816102e791906122d9565b5083604001518160040190816102fd91906122d9565b506040518060400160405280600381526020017f646f6e000000000000000000000000000000000000000000000000000000000081525092505050610377565b6040518060400160405280600981526020017f4e4f5420464f554e4400000000000000000000000000000000000000000000008152509150505b919050565b610384611978565b6000600360008473ffffffffffffffffffffffffffffffffffffffff1673ffffffffffffffffffffffffffffffffffffffff1681526020019081526020016000205490506000810361040b576040517f08c379a0000000000000000000000000000000000000000000000000000000008152600401610402906123f7565b60405180910390fd5b6000600282815481106104215761042061209e565b5b90600052602060002090600602016040518060c00160405290816000820160009054906101000a900473ffffffffffffffffffffffffffffffffffffffff1673ffffffffffffffffffffffffffffffffffffffff1673ffffffffffffffffffffffffffffffffffffffff168152602001600182015481526020016002820180546104aa906120fc565b80601f01602080910402602001604051908101604052809291908181526020018280546104d6906120fc565b80156105235780601f106104f857610100808354040283529160200191610523565b820191906000526020600020905b81548152906001019060200180831161050657829003601f168201915b5050505050815260200160038201805461053c906120fc565b80601f0160208091040260200160405190810160405280929190818152602001828054610568906120fc565b80156105b55780601f1061058a576101008083540402835291602001916105b5565b820191906000526020600020905b81548152906001019060200180831161059857829003601f168201915b505050505081526020016004820180546105ce906120fc565b80601f01602080910402602001604051908101604052809291908181526020018280546105fa906120fc565b80156106475780601f1061061c57610100808354040283529160200191610647565b820191906000526020600020905b81548152906001019060200180831161062a57829003601f168201915b505050505081526020016005820160009054906101000a900460ff1615151515815250509050600073ffffffffffffffffffffffffffffffffffffffff16816000015173ffffffffffffffffffffffffffffffffffffffff16036106e0576040517f08c379a00000000000000000000000000000000000000000000000000000000081526004016106d790612463565b60405180910390fd5b8092505050919050565b6106f2611978565b6000600360008473ffffffffffffffffffffffffffffffffffffffff1673ffffffffffffffffffffffffffffffffffffffff1681526020019081526020016000205490506107b46040518060400160405280600381526020017f6865680000000000000000000000000000000000000000000000000000000000815250600360008673ffffffffffffffffffffffffffffffffffffffff1673ffffffffffffffffffffffffffffffffffffffff168152602001908152602001600020546117f0565b60008103610b6e576000600282815481106107d2576107d161209e565b5b90600052602060002090600602016040518060c00160405290816000820160009054906101000a900473ffffffffffffffffffffffffffffffffffffffff1673ffffffffffffffffffffffffffffffffffffffff1673ffffffffffffffffffffffffffffffffffffffff1681526020016001820154815260200160028201805461085b906120fc565b80601f0160208091040260200160405190810160405280929190818152602001828054610887906120fc565b80156108d45780601f106108a9576101008083540402835291602001916108d4565b820191906000526020600020905b8154815290600101906020018083116108b757829003601f168201915b505050505081526020016003820180546108ed906120fc565b80601f0160208091040260200160405190810160405280929190818152602001828054610919906120fc565b80156109665780601f1061093b57610100808354040283529160200191610966565b820191906000526020600020905b81548152906001019060200180831161094957829003601f168201915b5050505050815260200160048201805461097f906120fc565b80601f01602080910402602001604051908101604052809291908181526020018280546109ab906120fc565b80156109f85780601f106109cd576101008083540402835291602001916109f8565b820191906000526020600020905b8154815290600101906020018083116109db57829003601f168201915b505050505081526020016005820160009054906101000a900460ff1615151515815250509050610a608473ffffffffffffffffffffffffffffffffffffffff16826000015173ffffffffffffffffffffffffffffffffffffffff16141585836000015161188c565b8373ffffffffffffffffffffffffffffffffffffffff16816000015173ffffffffffffffffffffffffffffffffffffffff1614610ad2576040517f08c379a0000000000000000000000000000000000000000000000000000000008152600401610ac990612463565b60405180910390fd5b84604051602001610ae391906124bf565b604051602081830303815290604052805190602001208160600151604051602001610b0e91906124bf565b6040516020818303038152906040528051906020012014610b64576040517f08c379a0000000000000000000000000000000000000000000000000000000008152600401610b5b90612522565b60405180910390fd5b8092505050610f26565b600060028281548110610b8457610b8361209e565b5b90600052602060002090600602016040518060c00160405290816000820160009054906101000a900473ffffffffffffffffffffffffffffffffffffffff1673ffffffffffffffffffffffffffffffffffffffff1673ffffffffffffffffffffffffffffffffffffffff16815260200160018201548152602001600282018054610c0d906120fc565b80601f0160208091040260200160405190810160405280929190818152602001828054610c39906120fc565b8015610c865780601f10610c5b57610100808354040283529160200191610c86565b820191906000526020600020905b815481529060010190602001808311610c6957829003601f168201915b50505050508152602001600382018054610c9f906120fc565b80601f0160208091040260200160405190810160405280929190818152602001828054610ccb906120fc565b8015610d185780601f10610ced57610100808354040283529160200191610d18565b820191906000526020600020905b815481529060010190602001808311610cfb57829003601f168201915b50505050508152602001600482018054610d31906120fc565b80601f0160208091040260200160405190810160405280929190818152602001828054610d5d906120fc565b8015610daa5780601f10610d7f57610100808354040283529160200191610daa565b820191906000526020600020905b815481529060010190602001808311610d8d57829003601f168201915b505050505081526020016005820160009054906101000a900460ff1615151515815250509050600073ffffffffffffffffffffffffffffffffffffffff16816000015173ffffffffffffffffffffffffffffffffffffffff1603610e43576040517f08c379a0000000000000000000000000000000000000000000000000000000008152600401610e3a90612463565b60405180910390fd5b600115158160a00151151503610e8e576040517f08c379a0000000000000000000000000000000000000000000000000000000008152600401610e859061258e565b60405180910390fd5b84604051602001610e9f91906124bf565b604051602081830303815290604052805190602001208160600151604051602001610eca91906124bf565b6040516020818303038152906040528051906020012014610f20576040517f08c379a0000000000000000000000000000000000000000000000000000000008152600401610f1790612522565b60405180910390fd5b80925050505b92915050565b60036020528060005260406000206000915090505481565b606060006002805480602002602001604051908101604052809291908181526020016000905b828210156111cd57838290600052602060002090600602016040518060c00160405290816000820160009054906101000a900473ffffffffffffffffffffffffffffffffffffffff1673ffffffffffffffffffffffffffffffffffffffff1673ffffffffffffffffffffffffffffffffffffffff16815260200160018201548152602001600282018054610ffd906120fc565b80601f0160208091040260200160405190810160405280929190818152602001828054611029906120fc565b80156110765780601f1061104b57610100808354040283529160200191611076565b820191906000526020600020905b81548152906001019060200180831161105957829003601f168201915b5050505050815260200160038201805461108f906120fc565b80601f01602080910402602001604051908101604052809291908181526020018280546110bb906120fc565b80156111085780601f106110dd57610100808354040283529160200191611108565b820191906000526020600020905b8154815290600101906020018083116110eb57829003601f168201915b50505050508152602001600482018054611121906120fc565b80601f016020809104026020016040519081016040528092919081815260200182805461114d906120fc565b801561119a5780601f1061116f5761010080835404028352916020019161119a565b820191906000526020600020905b81548152906001019060200180831161117d57829003601f168201915b505050505081526020016005820160009054906101000a900460ff16151515158152505081526020019060010190610f6a565b5050505090508091505090565b6000600360003373ffffffffffffffffffffffffffffffffffffffff1673ffffffffffffffffffffffffffffffffffffffff16815260200190815260200160002054905060008103611261576040517f08c379a0000000000000000000000000000000000000000000000000000000008152600401611258906123f7565b60405180910390fd5b6000600282815481106112775761127661209e565b5b9060005260206000209060060201905060018160050160006101000a81548160ff0219169083151502179055505050565b60006112b4600061192b565b905060005b60028054905081101561160e576000600282815481106112dc576112db61209e565b5b90600052602060002090600602016040518060c00160405290816000820160009054906101000a900473ffffffffffffffffffffffffffffffffffffffff1673ffffffffffffffffffffffffffffffffffffffff1673ffffffffffffffffffffffffffffffffffffffff16815260200160018201548152602001600282018054611365906120fc565b80601f0160208091040260200160405190810160405280929190818152602001828054611391906120fc565b80156113de5780601f106113b3576101008083540402835291602001916113de565b820191906000526020600020905b8154815290600101906020018083116113c157829003601f168201915b505050505081526020016003820180546113f7906120fc565b80601f0160208091040260200160405190810160405280929190818152602001828054611423906120fc565b80156114705780601f1061144557610100808354040283529160200191611470565b820191906000526020600020905b81548152906001019060200180831161145357829003601f168201915b50505050508152602001600482018054611489906120fc565b80601f01602080910402602001604051908101604052809291908181526020018280546114b5906120fc565b80156115025780601f106114d757610100808354040283529160200191611502565b820191906000526020600020905b8154815290600101906020018083116114e557829003601f168201915b505050505081526020016005820160009054906101000a900460ff16151515158152505090503373ffffffffffffffffffffffffffffffffffffffff16816000015173ffffffffffffffffffffffffffffffffffffffff161480156115ba5750836020015160405160200161157791906124bf565b6040516020818303038152906040528051906020012081606001516040516020016115a291906124bf565b60405160208183030381529060405280519060200120145b156115fa576040517f08c379a00000000000000000000000000000000000000000000000000000000081526004016115f1906125fa565b60405180910390fd5b50808061160690612649565b9150506112b9565b5060006040518060c001604052803373ffffffffffffffffffffffffffffffffffffffff1681526020018381526020018460000151815260200184602001518152602001846040015181526020016000151581525090507f933a5161f919bc11ef20ed379773af0644be248c476033ca53625ab85d11eae433846000015160405161169a9291906126a0565b60405180910390a16116ac6000611939565b600154600360003373ffffffffffffffffffffffffffffffffffffffff1673ffffffffffffffffffffffffffffffffffffffff168152602001908152602001600020819055506001600081548092919061170590612649565b9190505550600281908060018154018082558091505060019003906000526020600020906006020160009091909190915060008201518160000160006101000a81548173ffffffffffffffffffffffffffffffffffffffff021916908373ffffffffffffffffffffffffffffffffffffffff16021790555060208201518160010155604082015181600201908161179c91906122d9565b5060608201518160030190816117b291906122d9565b5060808201518160040190816117c891906122d9565b5060a08201518160050160006101000a81548160ff0219169083151502179055505050505050565b61188882826040516024016118069291906126d0565b6040516020818303038152906040527fb60e72cc000000000000000000000000000000000000000000000000000000007bffffffffffffffffffffffffffffffffffffffffffffffffffffffff19166020820180517bffffffffffffffffffffffffffffffffffffffffffffffffffffffff838183161783525050505061194f565b5050565b6119268383836040516024016118a49392919061270f565b6040516020818303038152906040527fd2763667000000000000000000000000000000000000000000000000000000007bffffffffffffffffffffffffffffffffffffffffffffffffffffffff19166020820180517bffffffffffffffffffffffffffffffffffffffffffffffffffffffff838183161783525050505061194f565b505050565b600081600001549050919050565b6001816000016000828254019250508190555050565b60008151905060006a636f6e736f6c652e6c6f679050602083016000808483855afa5050505050565b6040518060c00160405280600073ffffffffffffffffffffffffffffffffffffffff168152602001600081526020016060815260200160608152602001606081526020016000151581525090565b6000604051905090565b600080fd5b600080fd5b600080fd5b6000601f19601f8301169050919050565b7f4e487b7100000000000000000000000000000000000000000000000000000000600052604160045260246000fd5b611a28826119df565b810181811067ffffffffffffffff82111715611a4757611a466119f0565b5b80604052505050565b6000611a5a6119c6565b9050611a668282611a1f565b919050565b600080fd5b600080fd5b600080fd5b600067ffffffffffffffff821115611a9557611a946119f0565b5b611a9e826119df565b9050602081019050919050565b82818337600083830152505050565b6000611acd611ac884611a7a565b611a50565b905082815260208101848484011115611ae957611ae8611a75565b5b611af4848285611aab565b509392505050565b600082601f830112611b1157611b10611a70565b5b8135611b21848260208601611aba565b91505092915050565b600060608284031215611b4057611b3f6119da565b5b611b4a6060611a50565b9050600082013567ffffffffffffffff811115611b6a57611b69611a6b565b5b611b7684828501611afc565b600083015250602082013567ffffffffffffffff811115611b9a57611b99611a6b565b5b611ba684828501611afc565b602083015250604082013567ffffffffffffffff811115611bca57611bc9611a6b565b5b611bd684828501611afc565b60408301525092915050565b600060208284031215611bf857611bf76119d0565b5b600082013567ffffffffffffffff811115611c1657611c156119d5565b5b611c2284828501611b2a565b91505092915050565b600081519050919050565b600082825260208201905092915050565b60005b83811015611c65578082015181840152602081019050611c4a565b60008484015250505050565b6000611c7c82611c2b565b611c868185611c36565b9350611c96818560208601611c47565b611c9f816119df565b840191505092915050565b60006020820190508181036000830152611cc48184611c71565b905092915050565b600073ffffffffffffffffffffffffffffffffffffffff82169050919050565b6000611cf782611ccc565b9050919050565b611d0781611cec565b8114611d1257600080fd5b50565b600081359050611d2481611cfe565b92915050565b600060208284031215611d4057611d3f6119d0565b5b6000611d4e84828501611d15565b91505092915050565b611d6081611cec565b82525050565b6000819050919050565b611d7981611d66565b82525050565b600082825260208201905092915050565b6000611d9b82611c2b565b611da58185611d7f565b9350611db5818560208601611c47565b611dbe816119df565b840191505092915050565b60008115159050919050565b611dde81611dc9565b82525050565b600060c083016000830151611dfc6000860182611d57565b506020830151611e0f6020860182611d70565b5060408301518482036040860152611e278282611d90565b91505060608301518482036060860152611e418282611d90565b91505060808301518482036080860152611e5b8282611d90565b91505060a0830151611e7060a0860182611dd5565b508091505092915050565b60006020820190508181036000830152611e958184611de4565b905092915050565b60008060408385031215611eb457611eb36119d0565b5b600083013567ffffffffffffffff811115611ed257611ed16119d5565b5b611ede85828601611afc565b9250506020611eef85828601611d15565b9150509250929050565b611f0281611d66565b82525050565b6000602082019050611f1d6000830184611ef9565b92915050565b600081519050919050565b600082825260208201905092915050565b6000819050602082019050919050565b600060c083016000830151611f676000860182611d57565b506020830151611f7a6020860182611d70565b5060408301518482036040860152611f928282611d90565b91505060608301518482036060860152611fac8282611d90565b91505060808301518482036080860152611fc68282611d90565b91505060a0830151611fdb60a0860182611dd5565b508091505092915050565b6000611ff28383611f4f565b905092915050565b6000602082019050919050565b600061201282611f23565b61201c8185611f2e565b93508360208202850161202e85611f3f565b8060005b8581101561206a578484038952815161204b8582611fe6565b945061205683611ffa565b925060208a01995050600181019050612032565b50829750879550505050505092915050565b600060208201905081810360008301526120968184612007565b905092915050565b7f4e487b7100000000000000000000000000000000000000000000000000000000600052603260045260246000fd5b7f4e487b7100000000000000000000000000000000000000000000000000000000600052602260045260246000fd5b6000600282049050600182168061211457607f821691505b602082108103612127576121266120cd565b5b50919050565b60008190508160005260206000209050919050565b60006020601f8301049050919050565b600082821b905092915050565b60006008830261218f7fffffffffffffffffffffffffffffffffffffffffffffffffffffffffffffffff82612152565b6121998683612152565b95508019841693508086168417925050509392505050565b6000819050919050565b60006121d66121d16121cc84611d66565b6121b1565b611d66565b9050919050565b6000819050919050565b6121f0836121bb565b6122046121fc826121dd565b84845461215f565b825550505050565b600090565b61221961220c565b6122248184846121e7565b505050565b5b818110156122485761223d600082612211565b60018101905061222a565b5050565b601f82111561228d5761225e8161212d565b61226784612142565b81016020851015612276578190505b61228a61228285612142565b830182612229565b50505b505050565b600082821c905092915050565b60006122b060001984600802612292565b1980831691505092915050565b60006122c9838361229f565b9150826002028217905092915050565b6122e282611c2b565b67ffffffffffffffff8111156122fb576122fa6119f0565b5b61230582546120fc565b61231082828561224c565b600060209050601f8311600181146123435760008415612331578287015190505b61233b85826122bd565b8655506123a3565b601f1984166123518661212d565b60005b8281101561237957848901518255600182019150602085019450602081019050612354565b868310156123965784890151612392601f89168261229f565b8355505b6001600288020188555050505b505050505050565b7f55736572206e6f7420666f756e64000000000000000000000000000000000000600082015250565b60006123e1600e83611c36565b91506123ec826123ab565b602082019050919050565b60006020820190508181036000830152612410816123d4565b9050919050565b7f496e76616c696420757365720000000000000000000000000000000000000000600082015250565b600061244d600c83611c36565b915061245882612417565b602082019050919050565b6000602082019050818103600083015261247c81612440565b9050919050565b600081905092915050565b600061249982611c2b565b6124a38185612483565b93506124b3818560208601611c47565b80840191505092915050565b60006124cb828461248e565b915081905092915050565b7f456d61696c20446f65736e74206d617463680000000000000000000000000000600082015250565b600061250c601283611c36565b9150612517826124d6565b602082019050919050565b6000602082019050818103600083015261253b816124ff565b9050919050565b7f557365722044656c657465640000000000000000000000000000000000000000600082015250565b6000612578600c83611c36565b915061258382612542565b602082019050919050565b600060208201905081810360008301526125a78161256b565b9050919050565b7f456d61696c20466f756e64000000000000000000000000000000000000000000600082015250565b60006125e4600b83611c36565b91506125ef826125ae565b602082019050919050565b60006020820190508181036000830152612613816125d7565b9050919050565b7f4e487b7100000000000000000000000000000000000000000000000000000000600052601160045260246000fd5b600061265482611d66565b91507fffffffffffffffffffffffffffffffffffffffffffffffffffffffffffffffff82036126865761268561261a565b5b600182019050919050565b61269a81611cec565b82525050565b60006040820190506126b56000830185612691565b81810360208301526126c78184611c71565b90509392505050565b600060408201905081810360008301526126ea8185611c71565b90506126f96020830184611ef9565b9392505050565b61270981611dc9565b82525050565b60006060820190506127246000830186612700565b6127316020830185612691565b61273e6040830184612691565b94935050505056fea26469706673582212206b6df0a944d80af68b5b98914c3f50ed7b3f4488bf796b99a57858886f3b666064736f6c63430008120033",
  "linkReferences": {},
  "deployedLinkReferences": {}
}