{
  "_format": "hh-sol-artifact-1",
  "contractName": "Twitter",
  "sourceName": "contracts/Twitter.sol",
  "abi": [
    {
      "inputs": [
        {
          "internalType": "uint256",
          "name": "id",
          "type": "uint256"
        }
      ],
      "name": "addLikes",
      "outputs": [],
      "stateMutability": "nonpayable",
      "type": "function"
    },
    {
      "inputs": [
        {
          "internalType": "uint256",
          "name": "",
          "type": "uint256"
        }
      ],
      "name": "comments",
      "outputs": [
        {
          "internalType": "address",
          "name": "from",
          "type": "address"
        },
        {
          "internalType": "string",
          "name": "comment",
          "type": "string"
        },
        {
          "internalType": "uint256",
          "name": "timestamps",
          "type": "uint256"
        },
        {
          "internalType": "uint256",
          "name": "id",
          "type": "uint256"
        },
        {
          "internalType": "uint256",
          "name": "twidId",
          "type": "uint256"
        },
        {
          "internalType": "string",
          "name": "image",
          "type": "string"
        }
      ],
      "stateMutability": "view",
      "type": "function"
    },
    {
      "inputs": [
        {
          "internalType": "uint256",
          "name": "timestamps",
          "type": "uint256"
        },
        {
          "internalType": "string",
          "name": "message",
          "type": "string"
        },
        {
          "internalType": "string",
          "name": "img",
          "type": "string"
        },
        {
          "internalType": "uint256",
          "name": "id",
          "type": "uint256"
        }
      ],
      "name": "createComment",
      "outputs": [],
      "stateMutability": "nonpayable",
      "type": "function"
    },
    {
      "inputs": [
        {
          "internalType": "uint256",
          "name": "timestamps",
          "type": "uint256"
        },
        {
          "internalType": "string",
          "name": "message",
          "type": "string"
        },
        {
          "internalType": "string",
          "name": "img",
          "type": "string"
        }
      ],
      "name": "createPost",
      "outputs": [],
      "stateMutability": "nonpayable",
      "type": "function"
    },
    {
      "inputs": [],
      "name": "getAllPosts",
      "outputs": [
        {
          "components": [
            {
              "internalType": "address",
              "name": "owner",
              "type": "address"
            },
            {
              "internalType": "uint256",
              "name": "id",
              "type": "uint256"
            },
            {
              "internalType": "string",
              "name": "msg",
              "type": "string"
            },
            {
              "internalType": "string",
              "name": "image",
              "type": "string"
            },
            {
              "internalType": "uint256",
              "name": "timestamps",
              "type": "uint256"
            },
            {
              "internalType": "address[]",
              "name": "likes",
              "type": "address[]"
            }
          ],
          "internalType": "struct Twitter.Post[]",
          "name": "",
          "type": "tuple[]"
        }
      ],
      "stateMutability": "view",
      "type": "function"
    },
    {
      "inputs": [],
      "name": "getMyPosts",
      "outputs": [
        {
          "components": [
            {
              "internalType": "address",
              "name": "owner",
              "type": "address"
            },
            {
              "internalType": "uint256",
              "name": "id",
              "type": "uint256"
            },
            {
              "internalType": "string",
              "name": "msg",
              "type": "string"
            },
            {
              "internalType": "string",
              "name": "image",
              "type": "string"
            },
            {
              "internalType": "uint256",
              "name": "timestamps",
              "type": "uint256"
            },
            {
              "internalType": "address[]",
              "name": "likes",
              "type": "address[]"
            }
          ],
          "internalType": "struct Twitter.Post[]",
          "name": "",
          "type": "tuple[]"
        }
      ],
      "stateMutability": "view",
      "type": "function"
    },
    {
      "inputs": [
        {
          "internalType": "uint256",
          "name": "id",
          "type": "uint256"
        }
      ],
      "name": "getPostById",
      "outputs": [
        {
          "components": [
            {
              "internalType": "address",
              "name": "owner",
              "type": "address"
            },
            {
              "internalType": "uint256",
              "name": "id",
              "type": "uint256"
            },
            {
              "internalType": "string",
              "name": "msg",
              "type": "string"
            },
            {
              "internalType": "string",
              "name": "image",
              "type": "string"
            },
            {
              "internalType": "uint256",
              "name": "timestamps",
              "type": "uint256"
            },
            {
              "internalType": "address[]",
              "name": "likes",
              "type": "address[]"
            }
          ],
          "internalType": "struct Twitter.Post",
          "name": "a",
          "type": "tuple"
        }
      ],
      "stateMutability": "view",
      "type": "function"
    },
    {
      "inputs": [
        {
          "internalType": "uint256",
          "name": "id",
          "type": "uint256"
        }
      ],
      "name": "getPostComments",
      "outputs": [
        {
          "components": [
            {
              "internalType": "address",
              "name": "from",
              "type": "address"
            },
            {
              "internalType": "string",
              "name": "comment",
              "type": "string"
            },
            {
              "internalType": "uint256",
              "name": "timestamps",
              "type": "uint256"
            },
            {
              "internalType": "uint256",
              "name": "id",
              "type": "uint256"
            },
            {
              "internalType": "uint256",
              "name": "twidId",
              "type": "uint256"
            },
            {
              "internalType": "string",
              "name": "image",
              "type": "string"
            }
          ],
          "internalType": "struct Twitter.Comments[]",
          "name": "",
          "type": "tuple[]"
        }
      ],
      "stateMutability": "view",
      "type": "function"
    },
    {
      "inputs": [
        {
          "internalType": "uint256",
          "name": "",
          "type": "uint256"
        }
      ],
      "name": "post",
      "outputs": [
        {
          "internalType": "uint256",
          "name": "",
          "type": "uint256"
        }
      ],
      "stateMutability": "view",
      "type": "function"
    },
    {
      "inputs": [
        {
          "internalType": "uint256",
          "name": "",
          "type": "uint256"
        }
      ],
      "name": "posts",
      "outputs": [
        {
          "internalType": "address",
          "name": "owner",
          "type": "address"
        },
        {
          "internalType": "uint256",
          "name": "id",
          "type": "uint256"
        },
        {
          "internalType": "string",
          "name": "msg",
          "type": "string"
        },
        {
          "internalType": "string",
          "name": "image",
          "type": "string"
        },
        {
          "internalType": "uint256",
          "name": "timestamps",
          "type": "uint256"
        }
      ],
      "stateMutability": "view",
      "type": "function"
    },
    {
      "inputs": [
        {
          "internalType": "uint256",
          "name": "id",
          "type": "uint256"
        }
      ],
      "name": "unlike",
      "outputs": [],
      "stateMutability": "nonpayable",
      "type": "function"
    },
    {
      "inputs": [
        {
          "internalType": "uint256",
          "name": "id",
          "type": "uint256"
        },
        {
          "components": [
            {
              "internalType": "address",
              "name": "owner",
              "type": "address"
            },
            {
              "internalType": "uint256",
              "name": "id",
              "type": "uint256"
            },
            {
              "internalType": "string",
              "name": "msg",
              "type": "string"
            },
            {
              "internalType": "string",
              "name": "image",
              "type": "string"
            },
            {
              "internalType": "uint256",
              "name": "timestamps",
              "type": "uint256"
            },
            {
              "internalType": "address[]",
              "name": "likes",
              "type": "address[]"
            }
          ],
          "internalType": "struct Twitter.Post",
          "name": "object",
          "type": "tuple"
        }
      ],
      "name": "updatePost",
      "outputs": [],
      "stateMutability": "nonpayable",
      "type": "function"
    }
  ],
  "bytecode": "0x60806040526000600255600060035534801561001a57600080fd5b50612d778061002a6000396000f3fe608060405234801561001057600080fd5b50600436106100b45760003560e01c806364e958951161007157806364e958951461017d57806374d21ae0146101ad5780638ebb4c15146101c95780638ee6f1ad146101fe578063caa5863c1461021a578063d524ff761461024a576100b4565b80630a0e5046146100b95780630b1e7f83146100d557806330561100146101095780634e9b473914610127578063549dcd01146101435780635950eb5b1461015f575b600080fd5b6100d360048036038101906100ce9190611f7d565b61027a565b005b6100ef60048036038101906100ea919061201c565b610410565b604051610100959493929190612118565b60405180910390f35b610111610586565b60405161011e91906123e9565b60405180910390f35b610141600480360381019061013c919061240b565b610807565b005b61015d60048036038101906101589190612688565b6109b2565b005b610167610e41565b60405161017491906123e9565b60405180910390f35b6101976004803603810190610192919061201c565b611263565b6040516101a4919061277b565b60405180910390f35b6101c760048036038101906101c2919061201c565b6114da565b005b6101e360048036038101906101de919061201c565b6116b3565b6040516101f59695949392919061279d565b60405180910390f35b6102186004803603810190610213919061201c565b61182f565b005b610234600480360381019061022f919061201c565b611912565b604051610241919061280c565b60405180910390f35b610264600480360381019061025f919061201c565b61192a565b6040516102719190612979565b60405180910390f35b60006102866001611bc8565b90506102926000611bd6565b60006040518060c001604052803373ffffffffffffffffffffffffffffffffffffffff168152602001868152602001878152602001838152602001848152602001858152509050600354600760008481526020019081526020016000208190555060036000815480929190610306906129ca565b9190505550600581908060018154018082558091505060019003906000526020600020906006020160009091909190915060008201518160000160006101000a81548173ffffffffffffffffffffffffffffffffffffffff021916908373ffffffffffffffffffffffffffffffffffffffff16021790555060208201518160010190816103939190612c1e565b5060408201518160020155606082015181600301556080820151816004015560a08201518160050190816103c79190612c1e565b5050506104086040518060400160405280600f81526020017f6372656174656420636f6d6d656e740000000000000000000000000000000000815250611bec565b505050505050565b6006818154811061042057600080fd5b90600052602060002090600602016000915090508060000160009054906101000a900473ffffffffffffffffffffffffffffffffffffffff169080600101549080600201805461046f90612a41565b80601f016020809104026020016040519081016040528092919081815260200182805461049b90612a41565b80156104e85780601f106104bd576101008083540402835291602001916104e8565b820191906000526020600020905b8154815290600101906020018083116104cb57829003601f168201915b5050505050908060030180546104fd90612a41565b80601f016020809104026020016040519081016040528092919081815260200182805461052990612a41565b80156105765780601f1061054b57610100808354040283529160200191610576565b820191906000526020600020905b81548152906001019060200180831161055957829003601f168201915b5050505050908060040154905085565b606060006006805480602002602001604051908101604052809291908181526020016000905b828210156107fa57838290600052602060002090600602016040518060c00160405290816000820160009054906101000a900473ffffffffffffffffffffffffffffffffffffffff1673ffffffffffffffffffffffffffffffffffffffff1673ffffffffffffffffffffffffffffffffffffffff1681526020016001820154815260200160028201805461063f90612a41565b80601f016020809104026020016040519081016040528092919081815260200182805461066b90612a41565b80156106b85780601f1061068d576101008083540402835291602001916106b8565b820191906000526020600020905b81548152906001019060200180831161069b57829003601f168201915b505050505081526020016003820180546106d190612a41565b80601f01602080910402602001604051908101604052809291908181526020018280546106fd90612a41565b801561074a5780601f1061071f5761010080835404028352916020019161074a565b820191906000526020600020905b81548152906001019060200180831161072d57829003601f168201915b5050505050815260200160048201548152602001600582018054806020026020016040519081016040528092919081815260200182805480156107e257602002820191906000526020600020905b8160009054906101000a900473ffffffffffffffffffffffffffffffffffffffff1673ffffffffffffffffffffffffffffffffffffffff1681526020019060010190808311610798575b505050505081525050815260200190600101906105ac565b5050505090508091505090565b60006108136000611bc8565b905061081f6000611bd6565b606060006040518060c001604052803373ffffffffffffffffffffffffffffffffffffffff168152602001848152602001868152602001858152602001878152602001838152509050600254600460008581526020019081526020016000208190555060026000815480929190610895906129ca565b9190505550600681908060018154018082558091505060019003906000526020600020906006020160009091909190915060008201518160000160006101000a81548173ffffffffffffffffffffffffffffffffffffffff021916908373ffffffffffffffffffffffffffffffffffffffff16021790555060208201518160010155604082015181600201908161092c9190612c1e565b5060608201518160030190816109429190612c1e565b506080820151816004015560a0820151816005019080519060200190610969929190611cae565b5050506109aa6040518060400160405280600781526020017f6372656174656400000000000000000000000000000000000000000000000000815250611bec565b505050505050565b6109ba611d38565b60005b600680549050811015610e3b5783600682815481106109df576109de612cf0565b5b90600052602060002090600602016001015403610e285760068181548110610a0a57610a09612cf0565b5b90600052602060002090600602016040518060c00160405290816000820160009054906101000a900473ffffffffffffffffffffffffffffffffffffffff1673ffffffffffffffffffffffffffffffffffffffff1673ffffffffffffffffffffffffffffffffffffffff16815260200160018201548152602001600282018054610a9390612a41565b80601f0160208091040260200160405190810160405280929190818152602001828054610abf90612a41565b8015610b0c5780601f10610ae157610100808354040283529160200191610b0c565b820191906000526020600020905b815481529060010190602001808311610aef57829003601f168201915b50505050508152602001600382018054610b2590612a41565b80601f0160208091040260200160405190810160405280929190818152602001828054610b5190612a41565b8015610b9e5780601f10610b7357610100808354040283529160200191610b9e565b820191906000526020600020905b815481529060010190602001808311610b8157829003601f168201915b505050505081526020016004820154815260200160058201805480602002602001604051908101604052809291908181526020018280548015610c3657602002820191906000526020600020905b8160009054906101000a900473ffffffffffffffffffffffffffffffffffffffff1673ffffffffffffffffffffffffffffffffffffffff1681526020019060010190808311610bec575b50505050508152505091506040518060c001604052803373ffffffffffffffffffffffffffffffffffffffff16815260200160068381548110610c7c57610c7b612cf0565b5b906000526020600020906006020160010154815260200184604001518152602001846060015181526020018460800151815260200160068381548110610cc557610cc4612cf0565b5b9060005260206000209060060201600501805480602002602001604051908101604052809291908181526020018280548015610d5657602002820191906000526020600020905b8160009054906101000a900473ffffffffffffffffffffffffffffffffffffffff1673ffffffffffffffffffffffffffffffffffffffff1681526020019060010190808311610d0c575b505050505081525060068281548110610d7257610d71612cf0565b5b906000526020600020906006020160008201518160000160006101000a81548173ffffffffffffffffffffffffffffffffffffffff021916908373ffffffffffffffffffffffffffffffffffffffff160217905550602082015181600101556040820151816002019081610de69190612c1e565b506060820151816003019081610dfc9190612c1e565b506080820151816004015560a0820151816005019080519060200190610e23929190611cae565b509050505b8080610e33906129ca565b9150506109bd565b50505050565b60606000805b600680549050811015610eee573373ffffffffffffffffffffffffffffffffffffffff1660068281548110610e7f57610e7e612cf0565b5b906000526020600020906006020160000160009054906101000a900473ffffffffffffffffffffffffffffffffffffffff1673ffffffffffffffffffffffffffffffffffffffff1603610edb578180610ed7906129ca565b9250505b8080610ee6906129ca565b915050610e47565b5060008167ffffffffffffffff811115610f0b57610f0a611e52565b5b604051908082528060200260200182016040528015610f4457816020015b610f31611d38565b815260200190600190039081610f295790505b5090506000805b600680549050811015611259573373ffffffffffffffffffffffffffffffffffffffff1660068281548110610f8357610f82612cf0565b5b906000526020600020906006020160000160009054906101000a900473ffffffffffffffffffffffffffffffffffffffff1673ffffffffffffffffffffffffffffffffffffffff16036112465760068181548110610fe457610fe3612cf0565b5b90600052602060002090600602016040518060c00160405290816000820160009054906101000a900473ffffffffffffffffffffffffffffffffffffffff1673ffffffffffffffffffffffffffffffffffffffff1673ffffffffffffffffffffffffffffffffffffffff1681526020016001820154815260200160028201805461106d90612a41565b80601f016020809104026020016040519081016040528092919081815260200182805461109990612a41565b80156110e65780601f106110bb576101008083540402835291602001916110e6565b820191906000526020600020905b8154815290600101906020018083116110c957829003601f168201915b505050505081526020016003820180546110ff90612a41565b80601f016020809104026020016040519081016040528092919081815260200182805461112b90612a41565b80156111785780601f1061114d57610100808354040283529160200191611178565b820191906000526020600020905b81548152906001019060200180831161115b57829003601f168201915b50505050508152602001600482015481526020016005820180548060200260200160405190810160405280929190818152602001828054801561121057602002820191906000526020600020905b8160009054906101000a900473ffffffffffffffffffffffffffffffffffffffff1673ffffffffffffffffffffffffffffffffffffffff16815260200190600101908083116111c6575b50505050508152505083838151811061122c5761122b612cf0565b5b60200260200101819052508180611242906129ca565b9250505b8080611251906129ca565b915050610f4b565b5081935050505090565b61126b611d38565b60006004600084815260200190815260200160002054905060006006828154811061129957611298612cf0565b5b90600052602060002090600602016040518060c00160405290816000820160009054906101000a900473ffffffffffffffffffffffffffffffffffffffff1673ffffffffffffffffffffffffffffffffffffffff1673ffffffffffffffffffffffffffffffffffffffff1681526020016001820154815260200160028201805461132290612a41565b80601f016020809104026020016040519081016040528092919081815260200182805461134e90612a41565b801561139b5780601f106113705761010080835404028352916020019161139b565b820191906000526020600020905b81548152906001019060200180831161137e57829003601f168201915b505050505081526020016003820180546113b490612a41565b80601f01602080910402602001604051908101604052809291908181526020018280546113e090612a41565b801561142d5780601f106114025761010080835404028352916020019161142d565b820191906000526020600020905b81548152906001019060200180831161141057829003601f168201915b5050505050815260200160048201548152602001600582018054806020026020016040519081016040528092919081815260200182805480156114c557602002820191906000526020600020905b8160009054906101000a900473ffffffffffffffffffffffffffffffffffffffff1673ffffffffffffffffffffffffffffffffffffffff168152602001906001019080831161147b575b50505050508152505090508092505050919050565b60006004600083815260200190815260200160002054905060006006828154811061150857611507612cf0565b5b9060005260206000209060060201905060606000805b83600501805490508110156116545783600501818154811061154357611542612cf0565b5b9060005260206000200160009054906101000a900473ffffffffffffffffffffffffffffffffffffffff1673ffffffffffffffffffffffffffffffffffffffff163373ffffffffffffffffffffffffffffffffffffffff1614611641578360050181815481106115b6576115b5612cf0565b5b9060005260206000200160009054906101000a900473ffffffffffffffffffffffffffffffffffffffff1683836fffffffffffffffffffffffffffffffff168151811061160657611605612cf0565b5b602002602001019073ffffffffffffffffffffffffffffffffffffffff16908173ffffffffffffffffffffffffffffffffffffffff16815250505b808061164c906129ca565b91505061151e565b508183600501908051906020019061166d929190611cae565b506116ac6040518060400160405280600781526020017f48656c6c6f6f6f00000000000000000000000000000000000000000000000000815250611bec565b5050505050565b600581815481106116c357600080fd5b90600052602060002090600602016000915090508060000160009054906101000a900473ffffffffffffffffffffffffffffffffffffffff169080600101805461170c90612a41565b80601f016020809104026020016040519081016040528092919081815260200182805461173890612a41565b80156117855780601f1061175a57610100808354040283529160200191611785565b820191906000526020600020905b81548152906001019060200180831161176857829003601f168201915b5050505050908060020154908060030154908060040154908060050180546117ac90612a41565b80601f01602080910402602001604051908101604052809291908181526020018280546117d890612a41565b80156118255780601f106117fa57610100808354040283529160200191611825565b820191906000526020600020905b81548152906001019060200180831161180857829003601f168201915b5050505050905086565b600080600090505b60068054905081101561190d57826006828154811061185957611858612cf0565b5b906000526020600020906006020160010154036118fa576006818154811061188457611883612cf0565b5b9060005260206000209060060201915081600501339080600181540180825580915050600190039060005260206000200160009091909190916101000a81548173ffffffffffffffffffffffffffffffffffffffff021916908373ffffffffffffffffffffffffffffffffffffffff1602179055505b8080611905906129ca565b915050611837565b505050565b60046020528060005260406000206000915090505481565b6060600060058054905067ffffffffffffffff81111561194d5761194c611e52565b5b60405190808252806020026020018201604052801561198657816020015b611973611d84565b81526020019060019003908161196b5790505b5090506000805b600580549050811015611bbd5784600582815481106119af576119ae612cf0565b5b90600052602060002090600602016004015403611baa57600581815481106119da576119d9612cf0565b5b90600052602060002090600602016040518060c00160405290816000820160009054906101000a900473ffffffffffffffffffffffffffffffffffffffff1673ffffffffffffffffffffffffffffffffffffffff1673ffffffffffffffffffffffffffffffffffffffff168152602001600182018054611a5990612a41565b80601f0160208091040260200160405190810160405280929190818152602001828054611a8590612a41565b8015611ad25780601f10611aa757610100808354040283529160200191611ad2565b820191906000526020600020905b815481529060010190602001808311611ab557829003601f168201915b50505050508152602001600282015481526020016003820154815260200160048201548152602001600582018054611b0990612a41565b80601f0160208091040260200160405190810160405280929190818152602001828054611b3590612a41565b8015611b825780601f10611b5757610100808354040283529160200191611b82565b820191906000526020600020905b815481529060010190602001808311611b6557829003601f168201915b505050505081525050838381518110611b9e57611b9d612cf0565b5b60200260200101819052505b8080611bb5906129ca565b91505061198d565b508192505050919050565b600081600001549050919050565b6001816000016000828254019250508190555050565b611c8281604051602401611c009190612d1f565b6040516020818303038152906040527f41304fac000000000000000000000000000000000000000000000000000000007bffffffffffffffffffffffffffffffffffffffffffffffffffffffff19166020820180517bffffffffffffffffffffffffffffffffffffffffffffffffffffffff8381831617835250505050611c85565b50565b60008151905060006a636f6e736f6c652e6c6f679050602083016000808483855afa5050505050565b828054828255906000526020600020908101928215611d27579160200282015b82811115611d265782518260006101000a81548173ffffffffffffffffffffffffffffffffffffffff021916908373ffffffffffffffffffffffffffffffffffffffff16021790555091602001919060010190611cce565b5b509050611d349190611dd0565b5090565b6040518060c00160405280600073ffffffffffffffffffffffffffffffffffffffff16815260200160008152602001606081526020016060815260200160008152602001606081525090565b6040518060c00160405280600073ffffffffffffffffffffffffffffffffffffffff16815260200160608152602001600081526020016000815260200160008152602001606081525090565b5b80821115611de9576000816000905550600101611dd1565b5090565b6000604051905090565b600080fd5b600080fd5b6000819050919050565b611e1481611e01565b8114611e1f57600080fd5b50565b600081359050611e3181611e0b565b92915050565b600080fd5b600080fd5b6000601f19601f8301169050919050565b7f4e487b7100000000000000000000000000000000000000000000000000000000600052604160045260246000fd5b611e8a82611e41565b810181811067ffffffffffffffff82111715611ea957611ea8611e52565b5b80604052505050565b6000611ebc611ded565b9050611ec88282611e81565b919050565b600067ffffffffffffffff821115611ee857611ee7611e52565b5b611ef182611e41565b9050602081019050919050565b82818337600083830152505050565b6000611f20611f1b84611ecd565b611eb2565b905082815260208101848484011115611f3c57611f3b611e3c565b5b611f47848285611efe565b509392505050565b600082601f830112611f6457611f63611e37565b5b8135611f74848260208601611f0d565b91505092915050565b60008060008060808587031215611f9757611f96611df7565b5b6000611fa587828801611e22565b945050602085013567ffffffffffffffff811115611fc657611fc5611dfc565b5b611fd287828801611f4f565b935050604085013567ffffffffffffffff811115611ff357611ff2611dfc565b5b611fff87828801611f4f565b925050606061201087828801611e22565b91505092959194509250565b60006020828403121561203257612031611df7565b5b600061204084828501611e22565b91505092915050565b600073ffffffffffffffffffffffffffffffffffffffff82169050919050565b600061207482612049565b9050919050565b61208481612069565b82525050565b61209381611e01565b82525050565b600081519050919050565b600082825260208201905092915050565b60005b838110156120d35780820151818401526020810190506120b8565b60008484015250505050565b60006120ea82612099565b6120f481856120a4565b93506121048185602086016120b5565b61210d81611e41565b840191505092915050565b600060a08201905061212d600083018861207b565b61213a602083018761208a565b818103604083015261214c81866120df565b9050818103606083015261216081856120df565b905061216f608083018461208a565b9695505050505050565b600081519050919050565b600082825260208201905092915050565b6000819050602082019050919050565b6121ae81612069565b82525050565b6121bd81611e01565b82525050565b600082825260208201905092915050565b60006121df82612099565b6121e981856121c3565b93506121f98185602086016120b5565b61220281611e41565b840191505092915050565b600081519050919050565b600082825260208201905092915050565b6000819050602082019050919050565b600061224583836121a5565b60208301905092915050565b6000602082019050919050565b60006122698261220d565b6122738185612218565b935061227e83612229565b8060005b838110156122af5781516122968882612239565b97506122a183612251565b925050600181019050612282565b5085935050505092915050565b600060c0830160008301516122d460008601826121a5565b5060208301516122e760208601826121b4565b50604083015184820360408601526122ff82826121d4565b9150506060830151848203606086015261231982826121d4565b915050608083015161232e60808601826121b4565b5060a083015184820360a0860152612346828261225e565b9150508091505092915050565b600061235f83836122bc565b905092915050565b6000602082019050919050565b600061237f82612179565b6123898185612184565b93508360208202850161239b85612195565b8060005b858110156123d757848403895281516123b88582612353565b94506123c383612367565b925060208a0199505060018101905061239f565b50829750879550505050505092915050565b600060208201905081810360008301526124038184612374565b905092915050565b60008060006060848603121561242457612423611df7565b5b600061243286828701611e22565b935050602084013567ffffffffffffffff81111561245357612452611dfc565b5b61245f86828701611f4f565b925050604084013567ffffffffffffffff8111156124805761247f611dfc565b5b61248c86828701611f4f565b9150509250925092565b600080fd5b600080fd5b6124a981612069565b81146124b457600080fd5b50565b6000813590506124c6816124a0565b92915050565b600067ffffffffffffffff8211156124e7576124e6611e52565b5b602082029050602081019050919050565b600080fd5b600061251061250b846124cc565b611eb2565b90508083825260208201905060208402830185811115612533576125326124f8565b5b835b8181101561255c578061254888826124b7565b845260208401935050602081019050612535565b5050509392505050565b600082601f83011261257b5761257a611e37565b5b813561258b8482602086016124fd565b91505092915050565b600060c082840312156125aa576125a9612496565b5b6125b460c0611eb2565b905060006125c4848285016124b7565b60008301525060206125d884828501611e22565b602083015250604082013567ffffffffffffffff8111156125fc576125fb61249b565b5b61260884828501611f4f565b604083015250606082013567ffffffffffffffff81111561262c5761262b61249b565b5b61263884828501611f4f565b606083015250608061264c84828501611e22565b60808301525060a082013567ffffffffffffffff8111156126705761266f61249b565b5b61267c84828501612566565b60a08301525092915050565b6000806040838503121561269f5761269e611df7565b5b60006126ad85828601611e22565b925050602083013567ffffffffffffffff8111156126ce576126cd611dfc565b5b6126da85828601612594565b9150509250929050565b600060c0830160008301516126fc60008601826121a5565b50602083015161270f60208601826121b4565b506040830151848203604086015261272782826121d4565b9150506060830151848203606086015261274182826121d4565b915050608083015161275660808601826121b4565b5060a083015184820360a086015261276e828261225e565b9150508091505092915050565b6000602082019050818103600083015261279581846126e4565b905092915050565b600060c0820190506127b2600083018961207b565b81810360208301526127c481886120df565b90506127d3604083018761208a565b6127e0606083018661208a565b6127ed608083018561208a565b81810360a08301526127ff81846120df565b9050979650505050505050565b6000602082019050612821600083018461208a565b92915050565b600081519050919050565b600082825260208201905092915050565b6000819050602082019050919050565b600060c08301600083015161286b60008601826121a5565b506020830151848203602086015261288382826121d4565b915050604083015161289860408601826121b4565b5060608301516128ab60608601826121b4565b5060808301516128be60808601826121b4565b5060a083015184820360a08601526128d682826121d4565b9150508091505092915050565b60006128ef8383612853565b905092915050565b6000602082019050919050565b600061290f82612827565b6129198185612832565b93508360208202850161292b85612843565b8060005b85811015612967578484038952815161294885826128e3565b9450612953836128f7565b925060208a0199505060018101905061292f565b50829750879550505050505092915050565b600060208201905081810360008301526129938184612904565b905092915050565b7f4e487b7100000000000000000000000000000000000000000000000000000000600052601160045260246000fd5b60006129d582611e01565b91507fffffffffffffffffffffffffffffffffffffffffffffffffffffffffffffffff8203612a0757612a0661299b565b5b600182019050919050565b7f4e487b7100000000000000000000000000000000000000000000000000000000600052602260045260246000fd5b60006002820490506001821680612a5957607f821691505b602082108103612a6c57612a6b612a12565b5b50919050565b60008190508160005260206000209050919050565b60006020601f8301049050919050565b600082821b905092915050565b600060088302612ad47fffffffffffffffffffffffffffffffffffffffffffffffffffffffffffffffff82612a97565b612ade8683612a97565b95508019841693508086168417925050509392505050565b6000819050919050565b6000612b1b612b16612b1184611e01565b612af6565b611e01565b9050919050565b6000819050919050565b612b3583612b00565b612b49612b4182612b22565b848454612aa4565b825550505050565b600090565b612b5e612b51565b612b69818484612b2c565b505050565b5b81811015612b8d57612b82600082612b56565b600181019050612b6f565b5050565b601f821115612bd257612ba381612a72565b612bac84612a87565b81016020851015612bbb578190505b612bcf612bc785612a87565b830182612b6e565b50505b505050565b600082821c905092915050565b6000612bf560001984600802612bd7565b1980831691505092915050565b6000612c0e8383612be4565b9150826002028217905092915050565b612c2782612099565b67ffffffffffffffff811115612c4057612c3f611e52565b5b612c4a8254612a41565b612c55828285612b91565b600060209050601f831160018114612c885760008415612c76578287015190505b612c808582612c02565b865550612ce8565b601f198416612c9686612a72565b60005b82811015612cbe57848901518255600182019150602085019450602081019050612c99565b86831015612cdb5784890151612cd7601f891682612be4565b8355505b6001600288020188555050505b505050505050565b7f4e487b7100000000000000000000000000000000000000000000000000000000600052603260045260246000fd5b60006020820190508181036000830152612d3981846120df565b90509291505056fea26469706673582212201835723cd1b25f972a638d5a6dc8802229c6b96fdcc6ed75d679da1ba0faa85c64736f6c63430008120033",
  "linkReferences": {},
  "deployedLinkReferences": {}
}